{
	"functionmodifier.sol": {
		"FunctionModifier": {
			"abi": [
				{
					"inputs": [],
					"name": "count",
					"outputs": [
						{
							"internalType": "uint256",
							"name": "",
							"type": "uint256"
						}
					],
					"stateMutability": "view",
					"type": "function"
				},
				{
					"inputs": [],
					"name": "dec",
					"outputs": [],
					"stateMutability": "nonpayable",
					"type": "function"
				},
				{
					"inputs": [],
					"name": "decrease",
					"outputs": [],
					"stateMutability": "nonpayable",
					"type": "function"
				},
				{
					"inputs": [],
					"name": "inc",
					"outputs": [],
					"stateMutability": "nonpayable",
					"type": "function"
				},
				{
					"inputs": [],
					"name": "increase",
					"outputs": [],
					"stateMutability": "nonpayable",
					"type": "function"
				},
				{
					"inputs": [],
					"name": "paused",
					"outputs": [
						{
							"internalType": "bool",
							"name": "",
							"type": "bool"
						}
					],
					"stateMutability": "view",
					"type": "function"
				},
				{
					"inputs": [],
					"name": "sandwichFunc",
					"outputs": [],
					"stateMutability": "nonpayable",
					"type": "function"
				},
				{
					"inputs": [
						{
							"internalType": "bool",
							"name": "_value",
							"type": "bool"
						}
					],
					"name": "setPause",
					"outputs": [],
					"stateMutability": "nonpayable",
					"type": "function"
				}
			],
			"devdoc": {
				"kind": "dev",
				"methods": {},
				"version": 1
			},
			"evm": {
				"assembly": "    /* \"functionmodifier.sol\":68:1744  contract FunctionModifier {... */\n  mstore(0x40, 0x80)\n  callvalue\n  dup1\n  iszero\n  tag_1\n  jumpi\n  0x00\n  dup1\n  revert\ntag_1:\n  pop\n  dataSize(sub_0)\n  dup1\n  dataOffset(sub_0)\n  0x00\n  codecopy\n  0x00\n  return\nstop\n\nsub_0: assembly {\n        /* \"functionmodifier.sol\":68:1744  contract FunctionModifier {... */\n      mstore(0x40, 0x80)\n      callvalue\n      dup1\n      iszero\n      tag_1\n      jumpi\n      0x00\n      dup1\n      revert\n    tag_1:\n      pop\n      jumpi(tag_2, lt(calldatasize, 0x04))\n      shr(0xe0, calldataload(0x00))\n      dup1\n      0xbedb86fb\n      gt\n      tag_11\n      jumpi\n      dup1\n      0xbedb86fb\n      eq\n      tag_7\n      jumpi\n      dup1\n      0xd0de3cbd\n      eq\n      tag_8\n      jumpi\n      dup1\n      0xd732d955\n      eq\n      tag_9\n      jumpi\n      dup1\n      0xe8927fbc\n      eq\n      tag_10\n      jumpi\n      jump(tag_2)\n    tag_11:\n      dup1\n      0x06661abd\n      eq\n      tag_3\n      jumpi\n      dup1\n      0x371303c0\n      eq\n      tag_4\n      jumpi\n      dup1\n      0x5c975abb\n      eq\n      tag_5\n      jumpi\n      dup1\n      0xb3bcfa82\n      eq\n      tag_6\n      jumpi\n    tag_2:\n      0x00\n      dup1\n      revert\n        /* \"functionmodifier.sol\":365:382  uint public count */\n    tag_3:\n      tag_12\n      tag_13\n      jump\t// in\n    tag_12:\n      mload(0x40)\n      tag_14\n      swap2\n      swap1\n      tag_15\n      jump\t// in\n    tag_14:\n      mload(0x40)\n      dup1\n      swap2\n      sub\n      swap1\n      return\n        /* \"functionmodifier.sol\":575:660  function inc() public {... */\n    tag_4:\n      tag_16\n      tag_17\n      jump\t// in\n    tag_16:\n      stop\n        /* \"functionmodifier.sol\":320:338  bool public paused */\n    tag_5:\n      tag_18\n      tag_19\n      jump\t// in\n    tag_18:\n      mload(0x40)\n      tag_20\n      swap2\n      swap1\n      tag_21\n      jump\t// in\n    tag_20:\n      mload(0x40)\n      dup1\n      swap2\n      sub\n      swap1\n      return\n        /* \"functionmodifier.sol\":668:753  function dec() public {... */\n    tag_6:\n      tag_22\n      tag_23\n      jump\t// in\n    tag_22:\n      stop\n        /* \"functionmodifier.sol\":407:479  function setPause(bool _value) public {... */\n    tag_7:\n      tag_24\n      0x04\n      dup1\n      calldatasize\n      sub\n      dup2\n      add\n      swap1\n      tag_25\n      swap2\n      swap1\n      tag_26\n      jump\t// in\n    tag_25:\n      tag_27\n      jump\t// in\n    tag_24:\n      stop\n        /* \"functionmodifier.sol\":1674:1741  function sandwichFunc() public sandwich {... */\n    tag_8:\n      tag_28\n      tag_29\n      jump\t// in\n    tag_28:\n      stop\n        /* \"functionmodifier.sol\":1046:1113  function decrease() public whenNotPaused {... */\n    tag_9:\n      tag_30\n      tag_31\n      jump\t// in\n    tag_30:\n      stop\n        /* \"functionmodifier.sol\":971:1038  function increase() public whenNotPaused {... */\n    tag_10:\n      tag_32\n      tag_33\n      jump\t// in\n    tag_32:\n      stop\n        /* \"functionmodifier.sol\":365:382  uint public count */\n    tag_13:\n      sload(0x01)\n      dup2\n      jump\t// out\n        /* \"functionmodifier.sol\":575:660  function inc() public {... */\n    tag_17:\n        /* \"functionmodifier.sol\":617:623  paused */\n      0x00\n      dup1\n      sload\n      swap1\n      0x0100\n      exp\n      swap1\n      div\n      0xff\n      and\n        /* \"functionmodifier.sol\":616:623  !paused */\n      iszero\n        /* \"functionmodifier.sol\":608:634  require(!paused, \"paused\") */\n      tag_35\n      jumpi\n      mload(0x40)\n      0x08c379a000000000000000000000000000000000000000000000000000000000\n      dup2\n      mstore\n      0x04\n      add\n      tag_36\n      swap1\n      tag_37\n      jump\t// in\n    tag_36:\n      mload(0x40)\n      dup1\n      swap2\n      sub\n      swap1\n      revert\n    tag_35:\n        /* \"functionmodifier.sol\":645:650  count */\n      0x01\n      0x00\n        /* \"functionmodifier.sol\":645:652  count++ */\n      dup2\n      sload\n      dup1\n      swap3\n      swap2\n      swap1\n      tag_38\n      swap1\n      tag_39\n      jump\t// in\n    tag_38:\n      swap2\n      swap1\n      pop\n      sstore\n      pop\n        /* \"functionmodifier.sol\":575:660  function inc() public {... */\n      jump\t// out\n        /* \"functionmodifier.sol\":320:338  bool public paused */\n    tag_19:\n      0x00\n      dup1\n      sload\n      swap1\n      0x0100\n      exp\n      swap1\n      div\n      0xff\n      and\n      dup2\n      jump\t// out\n        /* \"functionmodifier.sol\":668:753  function dec() public {... */\n    tag_23:\n        /* \"functionmodifier.sol\":710:716  paused */\n      0x00\n      dup1\n      sload\n      swap1\n      0x0100\n      exp\n      swap1\n      div\n      0xff\n      and\n        /* \"functionmodifier.sol\":709:716  !paused */\n      iszero\n        /* \"functionmodifier.sol\":701:727  require(!paused, \"paused\") */\n      tag_41\n      jumpi\n      mload(0x40)\n      0x08c379a000000000000000000000000000000000000000000000000000000000\n      dup2\n      mstore\n      0x04\n      add\n      tag_42\n      swap1\n      tag_37\n      jump\t// in\n    tag_42:\n      mload(0x40)\n      dup1\n      swap2\n      sub\n      swap1\n      revert\n    tag_41:\n        /* \"functionmodifier.sol\":738:743  count */\n      0x01\n      0x00\n        /* \"functionmodifier.sol\":738:745  count-- */\n      dup2\n      sload\n      dup1\n      swap3\n      swap2\n      swap1\n      tag_43\n      swap1\n      tag_44\n      jump\t// in\n    tag_43:\n      swap2\n      swap1\n      pop\n      sstore\n      pop\n        /* \"functionmodifier.sol\":668:753  function dec() public {... */\n      jump\t// out\n        /* \"functionmodifier.sol\":407:479  function setPause(bool _value) public {... */\n    tag_27:\n        /* \"functionmodifier.sol\":465:471  _value */\n      dup1\n        /* \"functionmodifier.sol\":456:462  paused */\n      0x00\n      dup1\n        /* \"functionmodifier.sol\":456:471  paused = _value */\n      0x0100\n      exp\n      dup2\n      sload\n      dup2\n      0xff\n      mul\n      not\n      and\n      swap1\n      dup4\n      iszero\n      iszero\n      mul\n      or\n      swap1\n      sstore\n      pop\n        /* \"functionmodifier.sol\":407:479  function setPause(bool _value) public {... */\n      pop\n      jump\t// out\n        /* \"functionmodifier.sol\":1674:1741  function sandwichFunc() public sandwich {... */\n    tag_29:\n        /* \"functionmodifier.sol\":1624:1626  10 */\n      0x0a\n        /* \"functionmodifier.sol\":1615:1620  count */\n      0x01\n      0x00\n        /* \"functionmodifier.sol\":1615:1626  count += 10 */\n      dup3\n      dup3\n      sload\n      tag_47\n      swap2\n      swap1\n      tag_48\n      jump\t// in\n    tag_47:\n      swap3\n      pop\n      pop\n      dup2\n      swap1\n      sstore\n      pop\n        /* \"functionmodifier.sol\":1725:1730  count */\n      0x01\n      0x00\n        /* \"functionmodifier.sol\":1725:1733  count ++ */\n      dup2\n      sload\n      dup1\n      swap3\n      swap2\n      swap1\n      tag_50\n      swap1\n      tag_39\n      jump\t// in\n    tag_50:\n      swap2\n      swap1\n      pop\n      sstore\n      pop\n        /* \"functionmodifier.sol\":1657:1658  2 */\n      0x02\n        /* \"functionmodifier.sol\":1649:1654  count */\n      0x01\n      0x00\n        /* \"functionmodifier.sol\":1649:1658  count +=2 */\n      dup3\n      dup3\n      sload\n      tag_51\n      swap2\n      swap1\n      tag_48\n      jump\t// in\n    tag_51:\n      swap3\n      pop\n      pop\n      dup2\n      swap1\n      sstore\n      pop\n        /* \"functionmodifier.sol\":1674:1741  function sandwichFunc() public sandwich {... */\n      jump\t// out\n        /* \"functionmodifier.sol\":1046:1113  function decrease() public whenNotPaused {... */\n    tag_31:\n        /* \"functionmodifier.sol\":855:861  paused */\n      0x00\n      dup1\n      sload\n      swap1\n      0x0100\n      exp\n      swap1\n      div\n      0xff\n      and\n        /* \"functionmodifier.sol\":854:861  !paused */\n      iszero\n        /* \"functionmodifier.sol\":846:872  require(!paused, \"paused\") */\n      tag_53\n      jumpi\n      mload(0x40)\n      0x08c379a000000000000000000000000000000000000000000000000000000000\n      dup2\n      mstore\n      0x04\n      add\n      tag_54\n      swap1\n      tag_37\n      jump\t// in\n    tag_54:\n      mload(0x40)\n      dup1\n      swap2\n      sub\n      swap1\n      revert\n    tag_53:\n        /* \"functionmodifier.sol\":1098:1103  count */\n      0x01\n      0x00\n        /* \"functionmodifier.sol\":1098:1105  count-- */\n      dup2\n      sload\n      dup1\n      swap3\n      swap2\n      swap1\n      tag_56\n      swap1\n      tag_44\n      jump\t// in\n    tag_56:\n      swap2\n      swap1\n      pop\n      sstore\n      pop\n        /* \"functionmodifier.sol\":1046:1113  function decrease() public whenNotPaused {... */\n      jump\t// out\n        /* \"functionmodifier.sol\":971:1038  function increase() public whenNotPaused {... */\n    tag_33:\n        /* \"functionmodifier.sol\":855:861  paused */\n      0x00\n      dup1\n      sload\n      swap1\n      0x0100\n      exp\n      swap1\n      div\n      0xff\n      and\n        /* \"functionmodifier.sol\":854:861  !paused */\n      iszero\n        /* \"functionmodifier.sol\":846:872  require(!paused, \"paused\") */\n      tag_58\n      jumpi\n      mload(0x40)\n      0x08c379a000000000000000000000000000000000000000000000000000000000\n      dup2\n      mstore\n      0x04\n      add\n      tag_59\n      swap1\n      tag_37\n      jump\t// in\n    tag_59:\n      mload(0x40)\n      dup1\n      swap2\n      sub\n      swap1\n      revert\n    tag_58:\n        /* \"functionmodifier.sol\":1023:1028  count */\n      0x01\n      0x00\n        /* \"functionmodifier.sol\":1023:1030  count++ */\n      dup2\n      sload\n      dup1\n      swap3\n      swap2\n      swap1\n      tag_61\n      swap1\n      tag_39\n      jump\t// in\n    tag_61:\n      swap2\n      swap1\n      pop\n      sstore\n      pop\n        /* \"functionmodifier.sol\":971:1038  function increase() public whenNotPaused {... */\n      jump\t// out\n        /* \"#utility.yul\":7:84   */\n    tag_62:\n        /* \"#utility.yul\":44:51   */\n      0x00\n        /* \"#utility.yul\":73:78   */\n      dup2\n        /* \"#utility.yul\":62:78   */\n      swap1\n      pop\n        /* \"#utility.yul\":7:84   */\n      swap2\n      swap1\n      pop\n      jump\t// out\n        /* \"#utility.yul\":90:208   */\n    tag_63:\n        /* \"#utility.yul\":177:201   */\n      tag_78\n        /* \"#utility.yul\":195:200   */\n      dup2\n        /* \"#utility.yul\":177:201   */\n      tag_62\n      jump\t// in\n    tag_78:\n        /* \"#utility.yul\":172:175   */\n      dup3\n        /* \"#utility.yul\":165:202   */\n      mstore\n        /* \"#utility.yul\":90:208   */\n      pop\n      pop\n      jump\t// out\n        /* \"#utility.yul\":214:436   */\n    tag_15:\n        /* \"#utility.yul\":307:311   */\n      0x00\n        /* \"#utility.yul\":345:347   */\n      0x20\n        /* \"#utility.yul\":334:343   */\n      dup3\n        /* \"#utility.yul\":330:348   */\n      add\n        /* \"#utility.yul\":322:348   */\n      swap1\n      pop\n        /* \"#utility.yul\":358:429   */\n      tag_80\n        /* \"#utility.yul\":426:427   */\n      0x00\n        /* \"#utility.yul\":415:424   */\n      dup4\n        /* \"#utility.yul\":411:428   */\n      add\n        /* \"#utility.yul\":402:408   */\n      dup5\n        /* \"#utility.yul\":358:429   */\n      tag_63\n      jump\t// in\n    tag_80:\n        /* \"#utility.yul\":214:436   */\n      swap3\n      swap2\n      pop\n      pop\n      jump\t// out\n        /* \"#utility.yul\":442:532   */\n    tag_64:\n        /* \"#utility.yul\":476:483   */\n      0x00\n        /* \"#utility.yul\":519:524   */\n      dup2\n        /* \"#utility.yul\":512:525   */\n      iszero\n        /* \"#utility.yul\":505:526   */\n      iszero\n        /* \"#utility.yul\":494:526   */\n      swap1\n      pop\n        /* \"#utility.yul\":442:532   */\n      swap2\n      swap1\n      pop\n      jump\t// out\n        /* \"#utility.yul\":538:647   */\n    tag_65:\n        /* \"#utility.yul\":619:640   */\n      tag_83\n        /* \"#utility.yul\":634:639   */\n      dup2\n        /* \"#utility.yul\":619:640   */\n      tag_64\n      jump\t// in\n    tag_83:\n        /* \"#utility.yul\":614:617   */\n      dup3\n        /* \"#utility.yul\":607:641   */\n      mstore\n        /* \"#utility.yul\":538:647   */\n      pop\n      pop\n      jump\t// out\n        /* \"#utility.yul\":653:863   */\n    tag_21:\n        /* \"#utility.yul\":740:744   */\n      0x00\n        /* \"#utility.yul\":778:780   */\n      0x20\n        /* \"#utility.yul\":767:776   */\n      dup3\n        /* \"#utility.yul\":763:781   */\n      add\n        /* \"#utility.yul\":755:781   */\n      swap1\n      pop\n        /* \"#utility.yul\":791:856   */\n      tag_85\n        /* \"#utility.yul\":853:854   */\n      0x00\n        /* \"#utility.yul\":842:851   */\n      dup4\n        /* \"#utility.yul\":838:855   */\n      add\n        /* \"#utility.yul\":829:835   */\n      dup5\n        /* \"#utility.yul\":791:856   */\n      tag_65\n      jump\t// in\n    tag_85:\n        /* \"#utility.yul\":653:863   */\n      swap3\n      swap2\n      pop\n      pop\n      jump\t// out\n        /* \"#utility.yul\":950:1067   */\n    tag_67:\n        /* \"#utility.yul\":1059:1060   */\n      0x00\n        /* \"#utility.yul\":1056:1057   */\n      dup1\n        /* \"#utility.yul\":1049:1061   */\n      revert\n        /* \"#utility.yul\":1196:1312   */\n    tag_69:\n        /* \"#utility.yul\":1266:1287   */\n      tag_90\n        /* \"#utility.yul\":1281:1286   */\n      dup2\n        /* \"#utility.yul\":1266:1287   */\n      tag_64\n      jump\t// in\n    tag_90:\n        /* \"#utility.yul\":1259:1264   */\n      dup2\n        /* \"#utility.yul\":1256:1288   */\n      eq\n        /* \"#utility.yul\":1246:1306   */\n      tag_91\n      jumpi\n        /* \"#utility.yul\":1302:1303   */\n      0x00\n        /* \"#utility.yul\":1299:1300   */\n      dup1\n        /* \"#utility.yul\":1292:1304   */\n      revert\n        /* \"#utility.yul\":1246:1306   */\n    tag_91:\n        /* \"#utility.yul\":1196:1312   */\n      pop\n      jump\t// out\n        /* \"#utility.yul\":1318:1451   */\n    tag_70:\n        /* \"#utility.yul\":1361:1366   */\n      0x00\n        /* \"#utility.yul\":1399:1405   */\n      dup2\n        /* \"#utility.yul\":1386:1406   */\n      calldataload\n        /* \"#utility.yul\":1377:1406   */\n      swap1\n      pop\n        /* \"#utility.yul\":1415:1445   */\n      tag_93\n        /* \"#utility.yul\":1439:1444   */\n      dup2\n        /* \"#utility.yul\":1415:1445   */\n      tag_69\n      jump\t// in\n    tag_93:\n        /* \"#utility.yul\":1318:1451   */\n      swap3\n      swap2\n      pop\n      pop\n      jump\t// out\n        /* \"#utility.yul\":1457:1780   */\n    tag_26:\n        /* \"#utility.yul\":1513:1519   */\n      0x00\n        /* \"#utility.yul\":1562:1564   */\n      0x20\n        /* \"#utility.yul\":1550:1559   */\n      dup3\n        /* \"#utility.yul\":1541:1548   */\n      dup5\n        /* \"#utility.yul\":1537:1560   */\n      sub\n        /* \"#utility.yul\":1533:1565   */\n      slt\n        /* \"#utility.yul\":1530:1649   */\n      iszero\n      tag_95\n      jumpi\n        /* \"#utility.yul\":1568:1647   */\n      tag_96\n      tag_67\n      jump\t// in\n    tag_96:\n        /* \"#utility.yul\":1530:1649   */\n    tag_95:\n        /* \"#utility.yul\":1688:1689   */\n      0x00\n        /* \"#utility.yul\":1713:1763   */\n      tag_97\n        /* \"#utility.yul\":1755:1762   */\n      dup5\n        /* \"#utility.yul\":1746:1752   */\n      dup3\n        /* \"#utility.yul\":1735:1744   */\n      dup6\n        /* \"#utility.yul\":1731:1753   */\n      add\n        /* \"#utility.yul\":1713:1763   */\n      tag_70\n      jump\t// in\n    tag_97:\n        /* \"#utility.yul\":1703:1763   */\n      swap2\n      pop\n        /* \"#utility.yul\":1659:1773   */\n      pop\n        /* \"#utility.yul\":1457:1780   */\n      swap3\n      swap2\n      pop\n      pop\n      jump\t// out\n        /* \"#utility.yul\":1786:1955   */\n    tag_71:\n        /* \"#utility.yul\":1870:1881   */\n      0x00\n        /* \"#utility.yul\":1904:1910   */\n      dup3\n        /* \"#utility.yul\":1899:1902   */\n      dup3\n        /* \"#utility.yul\":1892:1911   */\n      mstore\n        /* \"#utility.yul\":1944:1948   */\n      0x20\n        /* \"#utility.yul\":1939:1942   */\n      dup3\n        /* \"#utility.yul\":1935:1949   */\n      add\n        /* \"#utility.yul\":1920:1949   */\n      swap1\n      pop\n        /* \"#utility.yul\":1786:1955   */\n      swap3\n      swap2\n      pop\n      pop\n      jump\t// out\n        /* \"#utility.yul\":1961:2117   */\n    tag_72:\n        /* \"#utility.yul\":2101:2109   */\n      0x7061757365640000000000000000000000000000000000000000000000000000\n        /* \"#utility.yul\":2097:2098   */\n      0x00\n        /* \"#utility.yul\":2089:2095   */\n      dup3\n        /* \"#utility.yul\":2085:2099   */\n      add\n        /* \"#utility.yul\":2078:2110   */\n      mstore\n        /* \"#utility.yul\":1961:2117   */\n      pop\n      jump\t// out\n        /* \"#utility.yul\":2123:2488   */\n    tag_73:\n        /* \"#utility.yul\":2265:2268   */\n      0x00\n        /* \"#utility.yul\":2286:2352   */\n      tag_101\n        /* \"#utility.yul\":2350:2351   */\n      0x06\n        /* \"#utility.yul\":2345:2348   */\n      dup4\n        /* \"#utility.yul\":2286:2352   */\n      tag_71\n      jump\t// in\n    tag_101:\n        /* \"#utility.yul\":2279:2352   */\n      swap2\n      pop\n        /* \"#utility.yul\":2361:2454   */\n      tag_102\n        /* \"#utility.yul\":2450:2453   */\n      dup3\n        /* \"#utility.yul\":2361:2454   */\n      tag_72\n      jump\t// in\n    tag_102:\n        /* \"#utility.yul\":2479:2481   */\n      0x20\n        /* \"#utility.yul\":2474:2477   */\n      dup3\n        /* \"#utility.yul\":2470:2482   */\n      add\n        /* \"#utility.yul\":2463:2482   */\n      swap1\n      pop\n        /* \"#utility.yul\":2123:2488   */\n      swap2\n      swap1\n      pop\n      jump\t// out\n        /* \"#utility.yul\":2494:2913   */\n    tag_37:\n        /* \"#utility.yul\":2660:2664   */\n      0x00\n        /* \"#utility.yul\":2698:2700   */\n      0x20\n        /* \"#utility.yul\":2687:2696   */\n      dup3\n        /* \"#utility.yul\":2683:2701   */\n      add\n        /* \"#utility.yul\":2675:2701   */\n      swap1\n      pop\n        /* \"#utility.yul\":2747:2756   */\n      dup2\n        /* \"#utility.yul\":2741:2745   */\n      dup2\n        /* \"#utility.yul\":2737:2757   */\n      sub\n        /* \"#utility.yul\":2733:2734   */\n      0x00\n        /* \"#utility.yul\":2722:2731   */\n      dup4\n        /* \"#utility.yul\":2718:2735   */\n      add\n        /* \"#utility.yul\":2711:2758   */\n      mstore\n        /* \"#utility.yul\":2775:2906   */\n      tag_104\n        /* \"#utility.yul\":2901:2905   */\n      dup2\n        /* \"#utility.yul\":2775:2906   */\n      tag_73\n      jump\t// in\n    tag_104:\n        /* \"#utility.yul\":2767:2906   */\n      swap1\n      pop\n        /* \"#utility.yul\":2494:2913   */\n      swap2\n      swap1\n      pop\n      jump\t// out\n        /* \"#utility.yul\":2919:3099   */\n    tag_74:\n        /* \"#utility.yul\":2967:3044   */\n      0x4e487b7100000000000000000000000000000000000000000000000000000000\n        /* \"#utility.yul\":2964:2965   */\n      0x00\n        /* \"#utility.yul\":2957:3045   */\n      mstore\n        /* \"#utility.yul\":3064:3068   */\n      0x11\n        /* \"#utility.yul\":3061:3062   */\n      0x04\n        /* \"#utility.yul\":3054:3069   */\n      mstore\n        /* \"#utility.yul\":3088:3092   */\n      0x24\n        /* \"#utility.yul\":3085:3086   */\n      0x00\n        /* \"#utility.yul\":3078:3093   */\n      revert\n        /* \"#utility.yul\":3105:3338   */\n    tag_39:\n        /* \"#utility.yul\":3144:3147   */\n      0x00\n        /* \"#utility.yul\":3167:3191   */\n      tag_107\n        /* \"#utility.yul\":3185:3190   */\n      dup3\n        /* \"#utility.yul\":3167:3191   */\n      tag_62\n      jump\t// in\n    tag_107:\n        /* \"#utility.yul\":3158:3191   */\n      swap2\n      pop\n        /* \"#utility.yul\":3213:3279   */\n      0xffffffffffffffffffffffffffffffffffffffffffffffffffffffffffffffff\n        /* \"#utility.yul\":3206:3211   */\n      dup3\n        /* \"#utility.yul\":3203:3280   */\n      sub\n        /* \"#utility.yul\":3200:3303   */\n      tag_108\n      jumpi\n        /* \"#utility.yul\":3283:3301   */\n      tag_109\n      tag_74\n      jump\t// in\n    tag_109:\n        /* \"#utility.yul\":3200:3303   */\n    tag_108:\n        /* \"#utility.yul\":3330:3331   */\n      0x01\n        /* \"#utility.yul\":3323:3328   */\n      dup3\n        /* \"#utility.yul\":3319:3332   */\n      add\n        /* \"#utility.yul\":3312:3332   */\n      swap1\n      pop\n        /* \"#utility.yul\":3105:3338   */\n      swap2\n      swap1\n      pop\n      jump\t// out\n        /* \"#utility.yul\":3344:3515   */\n    tag_44:\n        /* \"#utility.yul\":3383:3386   */\n      0x00\n        /* \"#utility.yul\":3406:3430   */\n      tag_111\n        /* \"#utility.yul\":3424:3429   */\n      dup3\n        /* \"#utility.yul\":3406:3430   */\n      tag_62\n      jump\t// in\n    tag_111:\n        /* \"#utility.yul\":3397:3430   */\n      swap2\n      pop\n        /* \"#utility.yul\":3452:3456   */\n      0x00\n        /* \"#utility.yul\":3445:3450   */\n      dup3\n        /* \"#utility.yul\":3442:3457   */\n      sub\n        /* \"#utility.yul\":3439:3480   */\n      tag_112\n      jumpi\n        /* \"#utility.yul\":3460:3478   */\n      tag_113\n      tag_74\n      jump\t// in\n    tag_113:\n        /* \"#utility.yul\":3439:3480   */\n    tag_112:\n        /* \"#utility.yul\":3507:3508   */\n      0x01\n        /* \"#utility.yul\":3500:3505   */\n      dup3\n        /* \"#utility.yul\":3496:3509   */\n      sub\n        /* \"#utility.yul\":3489:3509   */\n      swap1\n      pop\n        /* \"#utility.yul\":3344:3515   */\n      swap2\n      swap1\n      pop\n      jump\t// out\n        /* \"#utility.yul\":3521:3712   */\n    tag_48:\n        /* \"#utility.yul\":3561:3564   */\n      0x00\n        /* \"#utility.yul\":3580:3600   */\n      tag_115\n        /* \"#utility.yul\":3598:3599   */\n      dup3\n        /* \"#utility.yul\":3580:3600   */\n      tag_62\n      jump\t// in\n    tag_115:\n        /* \"#utility.yul\":3575:3600   */\n      swap2\n      pop\n        /* \"#utility.yul\":3614:3634   */\n      tag_116\n        /* \"#utility.yul\":3632:3633   */\n      dup4\n        /* \"#utility.yul\":3614:3634   */\n      tag_62\n      jump\t// in\n    tag_116:\n        /* \"#utility.yul\":3609:3634   */\n      swap3\n      pop\n        /* \"#utility.yul\":3657:3658   */\n      dup3\n        /* \"#utility.yul\":3654:3655   */\n      dup3\n        /* \"#utility.yul\":3650:3659   */\n      add\n        /* \"#utility.yul\":3643:3659   */\n      swap1\n      pop\n        /* \"#utility.yul\":3678:3681   */\n      dup1\n        /* \"#utility.yul\":3675:3676   */\n      dup3\n        /* \"#utility.yul\":3672:3682   */\n      gt\n        /* \"#utility.yul\":3669:3705   */\n      iszero\n      tag_117\n      jumpi\n        /* \"#utility.yul\":3685:3703   */\n      tag_118\n      tag_74\n      jump\t// in\n    tag_118:\n        /* \"#utility.yul\":3669:3705   */\n    tag_117:\n        /* \"#utility.yul\":3521:3712   */\n      swap3\n      swap2\n      pop\n      pop\n      jump\t// out\n\n    auxdata: 0xa26469706673582212204f29093b888674c46e9eb3e517171d2454d76ae08b65f503ccca0ab0d169bdf264736f6c634300081a0033\n}\n",
				"bytecode": {
					"linkReferences": {},
					"object": "6080604052348015600e575f80fd5b506105618061001c5f395ff3fe608060405234801561000f575f80fd5b5060043610610086575f3560e01c8063bedb86fb11610059578063bedb86fb146100da578063d0de3cbd146100f6578063d732d95514610100578063e8927fbc1461010a57610086565b806306661abd1461008a578063371303c0146100a85780635c975abb146100b2578063b3bcfa82146100d0575b5f80fd5b610092610114565b60405161009f9190610340565b60405180910390f35b6100b061011a565b005b6100ba610180565b6040516100c79190610373565b60405180910390f35b6100d8610190565b005b6100f460048036038101906100ef91906103ba565b6101f6565b005b6100fe610211565b005b61010861025c565b005b6101126102c2565b005b60015481565b5f8054906101000a900460ff1615610167576040517f08c379a000000000000000000000000000000000000000000000000000000000815260040161015e9061043f565b60405180910390fd5b60015f8154809291906101799061048a565b9190505550565b5f8054906101000a900460ff1681565b5f8054906101000a900460ff16156101dd576040517f08c379a00000000000000000000000000000000000000000000000000000000081526004016101d49061043f565b60405180910390fd5b60015f8154809291906101ef906104d1565b9190505550565b805f806101000a81548160ff02191690831515021790555050565b600a60015f82825461022391906104f8565b9250508190555060015f81548092919061023c9061048a565b9190505550600260015f82825461025391906104f8565b92505081905550565b5f8054906101000a900460ff16156102a9576040517f08c379a00000000000000000000000000000000000000000000000000000000081526004016102a09061043f565b60405180910390fd5b60015f8154809291906102bb906104d1565b9190505550565b5f8054906101000a900460ff161561030f576040517f08c379a00000000000000000000000000000000000000000000000000000000081526004016103069061043f565b60405180910390fd5b60015f8154809291906103219061048a565b9190505550565b5f819050919050565b61033a81610328565b82525050565b5f6020820190506103535f830184610331565b92915050565b5f8115159050919050565b61036d81610359565b82525050565b5f6020820190506103865f830184610364565b92915050565b5f80fd5b61039981610359565b81146103a3575f80fd5b50565b5f813590506103b481610390565b92915050565b5f602082840312156103cf576103ce61038c565b5b5f6103dc848285016103a6565b91505092915050565b5f82825260208201905092915050565b7f70617573656400000000000000000000000000000000000000000000000000005f82015250565b5f6104296006836103e5565b9150610434826103f5565b602082019050919050565b5f6020820190508181035f8301526104568161041d565b9050919050565b7f4e487b71000000000000000000000000000000000000000000000000000000005f52601160045260245ffd5b5f61049482610328565b91507fffffffffffffffffffffffffffffffffffffffffffffffffffffffffffffffff82036104c6576104c561045d565b5b600182019050919050565b5f6104db82610328565b91505f82036104ed576104ec61045d565b5b600182039050919050565b5f61050282610328565b915061050d83610328565b92508282019050808211156105255761052461045d565b5b9291505056fea26469706673582212204f29093b888674c46e9eb3e517171d2454d76ae08b65f503ccca0ab0d169bdf264736f6c634300081a0033",
					"opcodes": "PUSH1 0x80 PUSH1 0x40 MSTORE CALLVALUE DUP1 ISZERO PUSH1 0xE JUMPI PUSH0 DUP1 REVERT JUMPDEST POP PUSH2 0x561 DUP1 PUSH2 0x1C PUSH0 CODECOPY PUSH0 RETURN INVALID PUSH1 0x80 PUSH1 0x40 MSTORE CALLVALUE DUP1 ISZERO PUSH2 0xF JUMPI PUSH0 DUP1 REVERT JUMPDEST POP PUSH1 0x4 CALLDATASIZE LT PUSH2 0x86 JUMPI PUSH0 CALLDATALOAD PUSH1 0xE0 SHR DUP1 PUSH4 0xBEDB86FB GT PUSH2 0x59 JUMPI DUP1 PUSH4 0xBEDB86FB EQ PUSH2 0xDA JUMPI DUP1 PUSH4 0xD0DE3CBD EQ PUSH2 0xF6 JUMPI DUP1 PUSH4 0xD732D955 EQ PUSH2 0x100 JUMPI DUP1 PUSH4 0xE8927FBC EQ PUSH2 0x10A JUMPI PUSH2 0x86 JUMP JUMPDEST DUP1 PUSH4 0x6661ABD EQ PUSH2 0x8A JUMPI DUP1 PUSH4 0x371303C0 EQ PUSH2 0xA8 JUMPI DUP1 PUSH4 0x5C975ABB EQ PUSH2 0xB2 JUMPI DUP1 PUSH4 0xB3BCFA82 EQ PUSH2 0xD0 JUMPI JUMPDEST PUSH0 DUP1 REVERT JUMPDEST PUSH2 0x92 PUSH2 0x114 JUMP JUMPDEST PUSH1 0x40 MLOAD PUSH2 0x9F SWAP2 SWAP1 PUSH2 0x340 JUMP JUMPDEST PUSH1 0x40 MLOAD DUP1 SWAP2 SUB SWAP1 RETURN JUMPDEST PUSH2 0xB0 PUSH2 0x11A JUMP JUMPDEST STOP JUMPDEST PUSH2 0xBA PUSH2 0x180 JUMP JUMPDEST PUSH1 0x40 MLOAD PUSH2 0xC7 SWAP2 SWAP1 PUSH2 0x373 JUMP JUMPDEST PUSH1 0x40 MLOAD DUP1 SWAP2 SUB SWAP1 RETURN JUMPDEST PUSH2 0xD8 PUSH2 0x190 JUMP JUMPDEST STOP JUMPDEST PUSH2 0xF4 PUSH1 0x4 DUP1 CALLDATASIZE SUB DUP2 ADD SWAP1 PUSH2 0xEF SWAP2 SWAP1 PUSH2 0x3BA JUMP JUMPDEST PUSH2 0x1F6 JUMP JUMPDEST STOP JUMPDEST PUSH2 0xFE PUSH2 0x211 JUMP JUMPDEST STOP JUMPDEST PUSH2 0x108 PUSH2 0x25C JUMP JUMPDEST STOP JUMPDEST PUSH2 0x112 PUSH2 0x2C2 JUMP JUMPDEST STOP JUMPDEST PUSH1 0x1 SLOAD DUP2 JUMP JUMPDEST PUSH0 DUP1 SLOAD SWAP1 PUSH2 0x100 EXP SWAP1 DIV PUSH1 0xFF AND ISZERO PUSH2 0x167 JUMPI PUSH1 0x40 MLOAD PUSH32 0x8C379A000000000000000000000000000000000000000000000000000000000 DUP2 MSTORE PUSH1 0x4 ADD PUSH2 0x15E SWAP1 PUSH2 0x43F JUMP JUMPDEST PUSH1 0x40 MLOAD DUP1 SWAP2 SUB SWAP1 REVERT JUMPDEST PUSH1 0x1 PUSH0 DUP2 SLOAD DUP1 SWAP3 SWAP2 SWAP1 PUSH2 0x179 SWAP1 PUSH2 0x48A JUMP JUMPDEST SWAP2 SWAP1 POP SSTORE POP JUMP JUMPDEST PUSH0 DUP1 SLOAD SWAP1 PUSH2 0x100 EXP SWAP1 DIV PUSH1 0xFF AND DUP2 JUMP JUMPDEST PUSH0 DUP1 SLOAD SWAP1 PUSH2 0x100 EXP SWAP1 DIV PUSH1 0xFF AND ISZERO PUSH2 0x1DD JUMPI PUSH1 0x40 MLOAD PUSH32 0x8C379A000000000000000000000000000000000000000000000000000000000 DUP2 MSTORE PUSH1 0x4 ADD PUSH2 0x1D4 SWAP1 PUSH2 0x43F JUMP JUMPDEST PUSH1 0x40 MLOAD DUP1 SWAP2 SUB SWAP1 REVERT JUMPDEST PUSH1 0x1 PUSH0 DUP2 SLOAD DUP1 SWAP3 SWAP2 SWAP1 PUSH2 0x1EF SWAP1 PUSH2 0x4D1 JUMP JUMPDEST SWAP2 SWAP1 POP SSTORE POP JUMP JUMPDEST DUP1 PUSH0 DUP1 PUSH2 0x100 EXP DUP2 SLOAD DUP2 PUSH1 0xFF MUL NOT AND SWAP1 DUP4 ISZERO ISZERO MUL OR SWAP1 SSTORE POP POP JUMP JUMPDEST PUSH1 0xA PUSH1 0x1 PUSH0 DUP3 DUP3 SLOAD PUSH2 0x223 SWAP2 SWAP1 PUSH2 0x4F8 JUMP JUMPDEST SWAP3 POP POP DUP2 SWAP1 SSTORE POP PUSH1 0x1 PUSH0 DUP2 SLOAD DUP1 SWAP3 SWAP2 SWAP1 PUSH2 0x23C SWAP1 PUSH2 0x48A JUMP JUMPDEST SWAP2 SWAP1 POP SSTORE POP PUSH1 0x2 PUSH1 0x1 PUSH0 DUP3 DUP3 SLOAD PUSH2 0x253 SWAP2 SWAP1 PUSH2 0x4F8 JUMP JUMPDEST SWAP3 POP POP DUP2 SWAP1 SSTORE POP JUMP JUMPDEST PUSH0 DUP1 SLOAD SWAP1 PUSH2 0x100 EXP SWAP1 DIV PUSH1 0xFF AND ISZERO PUSH2 0x2A9 JUMPI PUSH1 0x40 MLOAD PUSH32 0x8C379A000000000000000000000000000000000000000000000000000000000 DUP2 MSTORE PUSH1 0x4 ADD PUSH2 0x2A0 SWAP1 PUSH2 0x43F JUMP JUMPDEST PUSH1 0x40 MLOAD DUP1 SWAP2 SUB SWAP1 REVERT JUMPDEST PUSH1 0x1 PUSH0 DUP2 SLOAD DUP1 SWAP3 SWAP2 SWAP1 PUSH2 0x2BB SWAP1 PUSH2 0x4D1 JUMP JUMPDEST SWAP2 SWAP1 POP SSTORE POP JUMP JUMPDEST PUSH0 DUP1 SLOAD SWAP1 PUSH2 0x100 EXP SWAP1 DIV PUSH1 0xFF AND ISZERO PUSH2 0x30F JUMPI PUSH1 0x40 MLOAD PUSH32 0x8C379A000000000000000000000000000000000000000000000000000000000 DUP2 MSTORE PUSH1 0x4 ADD PUSH2 0x306 SWAP1 PUSH2 0x43F JUMP JUMPDEST PUSH1 0x40 MLOAD DUP1 SWAP2 SUB SWAP1 REVERT JUMPDEST PUSH1 0x1 PUSH0 DUP2 SLOAD DUP1 SWAP3 SWAP2 SWAP1 PUSH2 0x321 SWAP1 PUSH2 0x48A JUMP JUMPDEST SWAP2 SWAP1 POP SSTORE POP JUMP JUMPDEST PUSH0 DUP2 SWAP1 POP SWAP2 SWAP1 POP JUMP JUMPDEST PUSH2 0x33A DUP2 PUSH2 0x328 JUMP JUMPDEST DUP3 MSTORE POP POP JUMP JUMPDEST PUSH0 PUSH1 0x20 DUP3 ADD SWAP1 POP PUSH2 0x353 PUSH0 DUP4 ADD DUP5 PUSH2 0x331 JUMP JUMPDEST SWAP3 SWAP2 POP POP JUMP JUMPDEST PUSH0 DUP2 ISZERO ISZERO SWAP1 POP SWAP2 SWAP1 POP JUMP JUMPDEST PUSH2 0x36D DUP2 PUSH2 0x359 JUMP JUMPDEST DUP3 MSTORE POP POP JUMP JUMPDEST PUSH0 PUSH1 0x20 DUP3 ADD SWAP1 POP PUSH2 0x386 PUSH0 DUP4 ADD DUP5 PUSH2 0x364 JUMP JUMPDEST SWAP3 SWAP2 POP POP JUMP JUMPDEST PUSH0 DUP1 REVERT JUMPDEST PUSH2 0x399 DUP2 PUSH2 0x359 JUMP JUMPDEST DUP2 EQ PUSH2 0x3A3 JUMPI PUSH0 DUP1 REVERT JUMPDEST POP JUMP JUMPDEST PUSH0 DUP2 CALLDATALOAD SWAP1 POP PUSH2 0x3B4 DUP2 PUSH2 0x390 JUMP JUMPDEST SWAP3 SWAP2 POP POP JUMP JUMPDEST PUSH0 PUSH1 0x20 DUP3 DUP5 SUB SLT ISZERO PUSH2 0x3CF JUMPI PUSH2 0x3CE PUSH2 0x38C JUMP JUMPDEST JUMPDEST PUSH0 PUSH2 0x3DC DUP5 DUP3 DUP6 ADD PUSH2 0x3A6 JUMP JUMPDEST SWAP2 POP POP SWAP3 SWAP2 POP POP JUMP JUMPDEST PUSH0 DUP3 DUP3 MSTORE PUSH1 0x20 DUP3 ADD SWAP1 POP SWAP3 SWAP2 POP POP JUMP JUMPDEST PUSH32 0x7061757365640000000000000000000000000000000000000000000000000000 PUSH0 DUP3 ADD MSTORE POP JUMP JUMPDEST PUSH0 PUSH2 0x429 PUSH1 0x6 DUP4 PUSH2 0x3E5 JUMP JUMPDEST SWAP2 POP PUSH2 0x434 DUP3 PUSH2 0x3F5 JUMP JUMPDEST PUSH1 0x20 DUP3 ADD SWAP1 POP SWAP2 SWAP1 POP JUMP JUMPDEST PUSH0 PUSH1 0x20 DUP3 ADD SWAP1 POP DUP2 DUP2 SUB PUSH0 DUP4 ADD MSTORE PUSH2 0x456 DUP2 PUSH2 0x41D JUMP JUMPDEST SWAP1 POP SWAP2 SWAP1 POP JUMP JUMPDEST PUSH32 0x4E487B7100000000000000000000000000000000000000000000000000000000 PUSH0 MSTORE PUSH1 0x11 PUSH1 0x4 MSTORE PUSH1 0x24 PUSH0 REVERT JUMPDEST PUSH0 PUSH2 0x494 DUP3 PUSH2 0x328 JUMP JUMPDEST SWAP2 POP PUSH32 0xFFFFFFFFFFFFFFFFFFFFFFFFFFFFFFFFFFFFFFFFFFFFFFFFFFFFFFFFFFFFFFFF DUP3 SUB PUSH2 0x4C6 JUMPI PUSH2 0x4C5 PUSH2 0x45D JUMP JUMPDEST JUMPDEST PUSH1 0x1 DUP3 ADD SWAP1 POP SWAP2 SWAP1 POP JUMP JUMPDEST PUSH0 PUSH2 0x4DB DUP3 PUSH2 0x328 JUMP JUMPDEST SWAP2 POP PUSH0 DUP3 SUB PUSH2 0x4ED JUMPI PUSH2 0x4EC PUSH2 0x45D JUMP JUMPDEST JUMPDEST PUSH1 0x1 DUP3 SUB SWAP1 POP SWAP2 SWAP1 POP JUMP JUMPDEST PUSH0 PUSH2 0x502 DUP3 PUSH2 0x328 JUMP JUMPDEST SWAP2 POP PUSH2 0x50D DUP4 PUSH2 0x328 JUMP JUMPDEST SWAP3 POP DUP3 DUP3 ADD SWAP1 POP DUP1 DUP3 GT ISZERO PUSH2 0x525 JUMPI PUSH2 0x524 PUSH2 0x45D JUMP JUMPDEST JUMPDEST SWAP3 SWAP2 POP POP JUMP INVALID LOG2 PUSH5 0x6970667358 0x22 SLT KECCAK256 0x4F 0x29 MULMOD EXTCODESIZE DUP9 DUP7 PUSH21 0xC46E9EB3E517171D2454D76AE08B65F503CCCA0AB0 0xD1 PUSH10 0xBDF264736F6C63430008 BYTE STOP CALLER "
				},
				"gasEstimates": {
					"creation": {
						"codeDepositCost": "275400",
						"executionCost": "316",
						"totalCost": "275716"
					},
					"external": {
						"count()": "2426",
						"dec()": "26715",
						"decrease()": "26692",
						"inc()": "26672",
						"increase()": "26715",
						"paused()": "2508",
						"sandwichFunc()": "infinite",
						"setPause(bool)": "24673"
					}
				},
				"methodIdentifiers": {
					"count()": "06661abd",
					"dec()": "b3bcfa82",
					"decrease()": "d732d955",
					"inc()": "371303c0",
					"increase()": "e8927fbc",
					"paused()": "5c975abb",
					"sandwichFunc()": "d0de3cbd",
					"setPause(bool)": "bedb86fb"
				}
			},
			"storageLayout": {
				"storage": [
					{
						"astId": 3,
						"contract": "functionmodifier.sol:FunctionModifier",
						"label": "paused",
						"offset": 0,
						"slot": "0",
						"type": "t_bool"
					},
					{
						"astId": 5,
						"contract": "functionmodifier.sol:FunctionModifier",
						"label": "count",
						"offset": 0,
						"slot": "1",
						"type": "t_uint256"
					}
				],
				"types": {
					"t_bool": {
						"encoding": "inplace",
						"label": "bool",
						"numberOfBytes": "1"
					},
					"t_uint256": {
						"encoding": "inplace",
						"label": "uint256",
						"numberOfBytes": "32"
					}
				}
			},
			"userdoc": {
				"kind": "user",
				"methods": {},
				"version": 1
			}
		}
	}
}