{
	"small-projects/todolist.sol": {
		"TodoList": {
			"abi": [
				{
					"inputs": [
						{
							"internalType": "string",
							"name": "_todo",
							"type": "string"
						}
					],
					"name": "addToDo",
					"outputs": [],
					"stateMutability": "nonpayable",
					"type": "function"
				},
				{
					"inputs": [
						{
							"internalType": "uint256",
							"name": "_index",
							"type": "uint256"
						}
					],
					"name": "completeToDo",
					"outputs": [],
					"stateMutability": "nonpayable",
					"type": "function"
				},
				{
					"inputs": [],
					"name": "getToDo",
					"outputs": [
						{
							"components": [
								{
									"internalType": "string",
									"name": "todo",
									"type": "string"
								},
								{
									"internalType": "bool",
									"name": "isCompleted",
									"type": "bool"
								}
							],
							"internalType": "struct TodoList.ToDo[]",
							"name": "",
							"type": "tuple[]"
						}
					],
					"stateMutability": "view",
					"type": "function"
				},
				{
					"inputs": [
						{
							"internalType": "uint256",
							"name": "",
							"type": "uint256"
						}
					],
					"name": "todos",
					"outputs": [
						{
							"internalType": "string",
							"name": "todo",
							"type": "string"
						},
						{
							"internalType": "bool",
							"name": "isCompleted",
							"type": "bool"
						}
					],
					"stateMutability": "view",
					"type": "function"
				}
			],
			"devdoc": {
				"kind": "dev",
				"methods": {},
				"version": 1
			},
			"evm": {
				"assembly": "    /* \"small-projects/todolist.sol\":68:556  contract TodoList {... */\n  mstore(0x40, 0x80)\n  callvalue\n  dup1\n  iszero\n  tag_1\n  jumpi\n  0x00\n  dup1\n  revert\ntag_1:\n  pop\n  dataSize(sub_0)\n  dup1\n  dataOffset(sub_0)\n  0x00\n  codecopy\n  0x00\n  return\nstop\n\nsub_0: assembly {\n        /* \"small-projects/todolist.sol\":68:556  contract TodoList {... */\n      mstore(0x40, 0x80)\n      callvalue\n      dup1\n      iszero\n      tag_1\n      jumpi\n      0x00\n      dup1\n      revert\n    tag_1:\n      pop\n      jumpi(tag_2, lt(calldatasize, 0x04))\n      shr(0xe0, calldataload(0x00))\n      dup1\n      0x3c4a57d6\n      eq\n      tag_3\n      jumpi\n      dup1\n      0x642a6fbc\n      eq\n      tag_4\n      jumpi\n      dup1\n      0xaede636a\n      eq\n      tag_5\n      jumpi\n      dup1\n      0xbc8bc2b4\n      eq\n      tag_6\n      jumpi\n    tag_2:\n      0x00\n      dup1\n      revert\n        /* \"small-projects/todolist.sol\":200:356  function addToDo(string calldata _todo) public {... */\n    tag_3:\n      tag_7\n      0x04\n      dup1\n      calldatasize\n      sub\n      dup2\n      add\n      swap1\n      tag_8\n      swap2\n      swap1\n      tag_9\n      jump\t// in\n    tag_8:\n      tag_10\n      jump\t// in\n    tag_7:\n      stop\n        /* \"small-projects/todolist.sol\":458:551  function completeToDo(uint _index) public {... */\n    tag_4:\n      tag_11\n      0x04\n      dup1\n      calldatasize\n      sub\n      dup2\n      add\n      swap1\n      tag_12\n      swap2\n      swap1\n      tag_13\n      jump\t// in\n    tag_12:\n      tag_14\n      jump\t// in\n    tag_11:\n      stop\n        /* \"small-projects/todolist.sol\":364:450  function getToDo() public view returns (ToDo[] memory) {... */\n    tag_5:\n      tag_15\n      tag_16\n      jump\t// in\n    tag_15:\n      mload(0x40)\n      tag_17\n      swap2\n      swap1\n      tag_18\n      jump\t// in\n    tag_17:\n      mload(0x40)\n      dup1\n      swap2\n      sub\n      swap1\n      return\n        /* \"small-projects/todolist.sol\":172:191  ToDo[] public todos */\n    tag_6:\n      tag_19\n      0x04\n      dup1\n      calldatasize\n      sub\n      dup2\n      add\n      swap1\n      tag_20\n      swap2\n      swap1\n      tag_13\n      jump\t// in\n    tag_20:\n      tag_21\n      jump\t// in\n    tag_19:\n      mload(0x40)\n      tag_22\n      swap3\n      swap2\n      swap1\n      tag_23\n      jump\t// in\n    tag_22:\n      mload(0x40)\n      dup1\n      swap2\n      sub\n      swap1\n      return\n        /* \"small-projects/todolist.sol\":200:356  function addToDo(string calldata _todo) public {... */\n    tag_10:\n        /* \"small-projects/todolist.sol\":258:263  todos */\n      0x00\n        /* \"small-projects/todolist.sol\":269:347  ToDo({... */\n      mload(0x40)\n      dup1\n      0x40\n      add\n      0x40\n      mstore\n      dup1\n        /* \"small-projects/todolist.sol\":296:301  _todo */\n      dup5\n      dup5\n        /* \"small-projects/todolist.sol\":269:347  ToDo({... */\n      dup1\n      dup1\n      0x1f\n      add\n      0x20\n      dup1\n      swap2\n      div\n      mul\n      0x20\n      add\n      mload(0x40)\n      swap1\n      dup2\n      add\n      0x40\n      mstore\n      dup1\n      swap4\n      swap3\n      swap2\n      swap1\n      dup2\n      dup2\n      mstore\n      0x20\n      add\n      dup4\n      dup4\n      dup1\n      dup3\n      dup5\n      calldatacopy\n      0x00\n      dup2\n      dup5\n      add\n      mstore\n      not(0x1f)\n      0x1f\n      dup3\n      add\n      and\n      swap1\n      pop\n      dup1\n      dup4\n      add\n      swap3\n      pop\n      pop\n      pop\n      pop\n      pop\n      pop\n      pop\n      dup2\n      mstore\n      0x20\n      add\n        /* \"small-projects/todolist.sol\":330:335  false */\n      0x00\n        /* \"small-projects/todolist.sol\":269:347  ToDo({... */\n      iszero\n      iszero\n      dup2\n      mstore\n      pop\n        /* \"small-projects/todolist.sol\":258:348  todos.push(ToDo({... */\n      swap1\n      dup1\n      0x01\n      dup2\n      sload\n      add\n      dup1\n      dup3\n      sstore\n      dup1\n      swap2\n      pop\n      pop\n      0x01\n      swap1\n      sub\n      swap1\n      0x00\n      mstore\n      keccak256(0x00, 0x20)\n      swap1\n      0x02\n      mul\n      add\n      0x00\n      swap1\n      swap2\n      swap1\n      swap2\n      swap1\n      swap2\n      pop\n      0x00\n      dup3\n      add\n      mload\n      dup2\n      0x00\n      add\n      swap1\n      dup2\n      tag_26\n      swap2\n      swap1\n      tag_27\n      jump\t// in\n    tag_26:\n      pop\n      0x20\n      dup3\n      add\n      mload\n      dup2\n      0x01\n      add\n      exp(0x0100, 0x00)\n      dup2\n      sload\n      dup2\n      0xff\n      mul\n      not\n      and\n      swap1\n      dup4\n      iszero\n      iszero\n      mul\n      or\n      swap1\n      sstore\n      pop\n      pop\n      pop\n        /* \"small-projects/todolist.sol\":200:356  function addToDo(string calldata _todo) public {... */\n      pop\n      pop\n      jump\t// out\n        /* \"small-projects/todolist.sol\":458:551  function completeToDo(uint _index) public {... */\n    tag_14:\n        /* \"small-projects/todolist.sol\":539:543  true */\n      0x01\n        /* \"small-projects/todolist.sol\":511:516  todos */\n      0x00\n        /* \"small-projects/todolist.sol\":517:523  _index */\n      dup3\n        /* \"small-projects/todolist.sol\":511:524  todos[_index] */\n      dup2\n      sload\n      dup2\n      lt\n      tag_29\n      jumpi\n      tag_30\n      tag_31\n      jump\t// in\n    tag_30:\n    tag_29:\n      swap1\n      0x00\n      mstore\n      keccak256(0x00, 0x20)\n      swap1\n      0x02\n      mul\n      add\n        /* \"small-projects/todolist.sol\":511:536  todos[_index].isCompleted */\n      0x01\n      add\n      0x00\n        /* \"small-projects/todolist.sol\":511:543  todos[_index].isCompleted = true */\n      0x0100\n      exp\n      dup2\n      sload\n      dup2\n      0xff\n      mul\n      not\n      and\n      swap1\n      dup4\n      iszero\n      iszero\n      mul\n      or\n      swap1\n      sstore\n      pop\n        /* \"small-projects/todolist.sol\":458:551  function completeToDo(uint _index) public {... */\n      pop\n      jump\t// out\n        /* \"small-projects/todolist.sol\":364:450  function getToDo() public view returns (ToDo[] memory) {... */\n    tag_16:\n        /* \"small-projects/todolist.sol\":404:417  ToDo[] memory */\n      0x60\n        /* \"small-projects/todolist.sol\":437:442  todos */\n      0x00\n        /* \"small-projects/todolist.sol\":430:442  return todos */\n      dup1\n      sload\n      dup1\n      0x20\n      mul\n      0x20\n      add\n      mload(0x40)\n      swap1\n      dup2\n      add\n      0x40\n      mstore\n      dup1\n      swap3\n      swap2\n      swap1\n      dup2\n      dup2\n      mstore\n      0x20\n      add\n      0x00\n      swap1\n    tag_34:\n      dup3\n      dup3\n      lt\n      iszero\n      tag_35\n      jumpi\n      dup4\n      dup3\n      swap1\n      0x00\n      mstore\n      keccak256(0x00, 0x20)\n      swap1\n      0x02\n      mul\n      add\n      mload(0x40)\n      dup1\n      0x40\n      add\n      0x40\n      mstore\n      swap1\n      dup2\n      0x00\n      dup3\n      add\n      dup1\n      sload\n      tag_37\n      swap1\n      tag_38\n      jump\t// in\n    tag_37:\n      dup1\n      0x1f\n      add\n      0x20\n      dup1\n      swap2\n      div\n      mul\n      0x20\n      add\n      mload(0x40)\n      swap1\n      dup2\n      add\n      0x40\n      mstore\n      dup1\n      swap3\n      swap2\n      swap1\n      dup2\n      dup2\n      mstore\n      0x20\n      add\n      dup3\n      dup1\n      sload\n      tag_39\n      swap1\n      tag_38\n      jump\t// in\n    tag_39:\n      dup1\n      iszero\n      tag_40\n      jumpi\n      dup1\n      0x1f\n      lt\n      tag_41\n      jumpi\n      0x0100\n      dup1\n      dup4\n      sload\n      div\n      mul\n      dup4\n      mstore\n      swap2\n      0x20\n      add\n      swap2\n      jump(tag_40)\n    tag_41:\n      dup3\n      add\n      swap2\n      swap1\n      0x00\n      mstore\n      keccak256(0x00, 0x20)\n      swap1\n    tag_42:\n      dup2\n      sload\n      dup2\n      mstore\n      swap1\n      0x01\n      add\n      swap1\n      0x20\n      add\n      dup1\n      dup4\n      gt\n      tag_42\n      jumpi\n      dup3\n      swap1\n      sub\n      0x1f\n      and\n      dup3\n      add\n      swap2\n    tag_40:\n      pop\n      pop\n      pop\n      pop\n      pop\n      dup2\n      mstore\n      0x20\n      add\n      0x01\n      dup3\n      add\n      0x00\n      swap1\n      sload\n      swap1\n      0x0100\n      exp\n      swap1\n      div\n      0xff\n      and\n      iszero\n      iszero\n      iszero\n      iszero\n      dup2\n      mstore\n      pop\n      pop\n      dup2\n      mstore\n      0x20\n      add\n      swap1\n      0x01\n      add\n      swap1\n      jump(tag_34)\n    tag_35:\n      pop\n      pop\n      pop\n      pop\n      swap1\n      pop\n        /* \"small-projects/todolist.sol\":364:450  function getToDo() public view returns (ToDo[] memory) {... */\n      swap1\n      jump\t// out\n        /* \"small-projects/todolist.sol\":172:191  ToDo[] public todos */\n    tag_21:\n      0x00\n      dup2\n      dup2\n      sload\n      dup2\n      lt\n      tag_43\n      jumpi\n      0x00\n      dup1\n      revert\n    tag_43:\n      swap1\n      0x00\n      mstore\n      keccak256(0x00, 0x20)\n      swap1\n      0x02\n      mul\n      add\n      0x00\n      swap2\n      pop\n      swap1\n      pop\n      dup1\n      0x00\n      add\n      dup1\n      sload\n      tag_45\n      swap1\n      tag_38\n      jump\t// in\n    tag_45:\n      dup1\n      0x1f\n      add\n      0x20\n      dup1\n      swap2\n      div\n      mul\n      0x20\n      add\n      mload(0x40)\n      swap1\n      dup2\n      add\n      0x40\n      mstore\n      dup1\n      swap3\n      swap2\n      swap1\n      dup2\n      dup2\n      mstore\n      0x20\n      add\n      dup3\n      dup1\n      sload\n      tag_46\n      swap1\n      tag_38\n      jump\t// in\n    tag_46:\n      dup1\n      iszero\n      tag_47\n      jumpi\n      dup1\n      0x1f\n      lt\n      tag_48\n      jumpi\n      0x0100\n      dup1\n      dup4\n      sload\n      div\n      mul\n      dup4\n      mstore\n      swap2\n      0x20\n      add\n      swap2\n      jump(tag_47)\n    tag_48:\n      dup3\n      add\n      swap2\n      swap1\n      0x00\n      mstore\n      keccak256(0x00, 0x20)\n      swap1\n    tag_49:\n      dup2\n      sload\n      dup2\n      mstore\n      swap1\n      0x01\n      add\n      swap1\n      0x20\n      add\n      dup1\n      dup4\n      gt\n      tag_49\n      jumpi\n      dup3\n      swap1\n      sub\n      0x1f\n      and\n      dup3\n      add\n      swap2\n    tag_47:\n      pop\n      pop\n      pop\n      pop\n      pop\n      swap1\n      dup1\n      0x01\n      add\n      0x00\n      swap1\n      sload\n      swap1\n      0x0100\n      exp\n      swap1\n      div\n      0xff\n      and\n      swap1\n      pop\n      dup3\n      jump\t// out\n        /* \"#utility.yul\":88:205   */\n    tag_51:\n        /* \"#utility.yul\":197:198   */\n      0x00\n        /* \"#utility.yul\":194:195   */\n      dup1\n        /* \"#utility.yul\":187:199   */\n      revert\n        /* \"#utility.yul\":211:328   */\n    tag_52:\n        /* \"#utility.yul\":320:321   */\n      0x00\n        /* \"#utility.yul\":317:318   */\n      dup1\n        /* \"#utility.yul\":310:322   */\n      revert\n        /* \"#utility.yul\":334:451   */\n    tag_53:\n        /* \"#utility.yul\":443:444   */\n      0x00\n        /* \"#utility.yul\":440:441   */\n      dup1\n        /* \"#utility.yul\":433:445   */\n      revert\n        /* \"#utility.yul\":457:574   */\n    tag_54:\n        /* \"#utility.yul\":566:567   */\n      0x00\n        /* \"#utility.yul\":563:564   */\n      dup1\n        /* \"#utility.yul\":556:568   */\n      revert\n        /* \"#utility.yul\":580:697   */\n    tag_55:\n        /* \"#utility.yul\":689:690   */\n      0x00\n        /* \"#utility.yul\":686:687   */\n      dup1\n        /* \"#utility.yul\":679:691   */\n      revert\n        /* \"#utility.yul\":717:1270   */\n    tag_56:\n        /* \"#utility.yul\":775:783   */\n      0x00\n        /* \"#utility.yul\":785:791   */\n      dup1\n        /* \"#utility.yul\":835:838   */\n      dup4\n        /* \"#utility.yul\":828:832   */\n      0x1f\n        /* \"#utility.yul\":820:826   */\n      dup5\n        /* \"#utility.yul\":816:833   */\n      add\n        /* \"#utility.yul\":812:839   */\n      slt\n        /* \"#utility.yul\":802:924   */\n      tag_102\n      jumpi\n        /* \"#utility.yul\":843:922   */\n      tag_103\n      tag_53\n      jump\t// in\n    tag_103:\n        /* \"#utility.yul\":802:924   */\n    tag_102:\n        /* \"#utility.yul\":956:962   */\n      dup3\n        /* \"#utility.yul\":943:963   */\n      calldataload\n        /* \"#utility.yul\":933:963   */\n      swap1\n      pop\n        /* \"#utility.yul\":986:1004   */\n      0xffffffffffffffff\n        /* \"#utility.yul\":978:984   */\n      dup2\n        /* \"#utility.yul\":975:1005   */\n      gt\n        /* \"#utility.yul\":972:1089   */\n      iszero\n      tag_104\n      jumpi\n        /* \"#utility.yul\":1008:1087   */\n      tag_105\n      tag_54\n      jump\t// in\n    tag_105:\n        /* \"#utility.yul\":972:1089   */\n    tag_104:\n        /* \"#utility.yul\":1122:1126   */\n      0x20\n        /* \"#utility.yul\":1114:1120   */\n      dup4\n        /* \"#utility.yul\":1110:1127   */\n      add\n        /* \"#utility.yul\":1098:1127   */\n      swap2\n      pop\n        /* \"#utility.yul\":1176:1179   */\n      dup4\n        /* \"#utility.yul\":1168:1172   */\n      0x01\n        /* \"#utility.yul\":1160:1166   */\n      dup3\n        /* \"#utility.yul\":1156:1173   */\n      mul\n        /* \"#utility.yul\":1146:1154   */\n      dup4\n        /* \"#utility.yul\":1142:1174   */\n      add\n        /* \"#utility.yul\":1139:1180   */\n      gt\n        /* \"#utility.yul\":1136:1264   */\n      iszero\n      tag_106\n      jumpi\n        /* \"#utility.yul\":1183:1262   */\n      tag_107\n      tag_55\n      jump\t// in\n    tag_107:\n        /* \"#utility.yul\":1136:1264   */\n    tag_106:\n        /* \"#utility.yul\":717:1270   */\n      swap3\n      pop\n      swap3\n      swap1\n      pop\n      jump\t// out\n        /* \"#utility.yul\":1276:1805   */\n    tag_9:\n        /* \"#utility.yul\":1347:1353   */\n      0x00\n        /* \"#utility.yul\":1355:1361   */\n      dup1\n        /* \"#utility.yul\":1404:1406   */\n      0x20\n        /* \"#utility.yul\":1392:1401   */\n      dup4\n        /* \"#utility.yul\":1383:1390   */\n      dup6\n        /* \"#utility.yul\":1379:1402   */\n      sub\n        /* \"#utility.yul\":1375:1407   */\n      slt\n        /* \"#utility.yul\":1372:1491   */\n      iszero\n      tag_109\n      jumpi\n        /* \"#utility.yul\":1410:1489   */\n      tag_110\n      tag_51\n      jump\t// in\n    tag_110:\n        /* \"#utility.yul\":1372:1491   */\n    tag_109:\n        /* \"#utility.yul\":1558:1559   */\n      0x00\n        /* \"#utility.yul\":1547:1556   */\n      dup4\n        /* \"#utility.yul\":1543:1560   */\n      add\n        /* \"#utility.yul\":1530:1561   */\n      calldataload\n        /* \"#utility.yul\":1588:1606   */\n      0xffffffffffffffff\n        /* \"#utility.yul\":1580:1586   */\n      dup2\n        /* \"#utility.yul\":1577:1607   */\n      gt\n        /* \"#utility.yul\":1574:1691   */\n      iszero\n      tag_111\n      jumpi\n        /* \"#utility.yul\":1610:1689   */\n      tag_112\n      tag_52\n      jump\t// in\n    tag_112:\n        /* \"#utility.yul\":1574:1691   */\n    tag_111:\n        /* \"#utility.yul\":1723:1788   */\n      tag_113\n        /* \"#utility.yul\":1780:1787   */\n      dup6\n        /* \"#utility.yul\":1771:1777   */\n      dup3\n        /* \"#utility.yul\":1760:1769   */\n      dup7\n        /* \"#utility.yul\":1756:1778   */\n      add\n        /* \"#utility.yul\":1723:1788   */\n      tag_56\n      jump\t// in\n    tag_113:\n        /* \"#utility.yul\":1705:1788   */\n      swap3\n      pop\n      swap3\n      pop\n        /* \"#utility.yul\":1501:1798   */\n      pop\n        /* \"#utility.yul\":1276:1805   */\n      swap3\n      pop\n      swap3\n      swap1\n      pop\n      jump\t// out\n        /* \"#utility.yul\":1811:1888   */\n    tag_57:\n        /* \"#utility.yul\":1848:1855   */\n      0x00\n        /* \"#utility.yul\":1877:1882   */\n      dup2\n        /* \"#utility.yul\":1866:1882   */\n      swap1\n      pop\n        /* \"#utility.yul\":1811:1888   */\n      swap2\n      swap1\n      pop\n      jump\t// out\n        /* \"#utility.yul\":1894:2016   */\n    tag_58:\n        /* \"#utility.yul\":1967:1991   */\n      tag_116\n        /* \"#utility.yul\":1985:1990   */\n      dup2\n        /* \"#utility.yul\":1967:1991   */\n      tag_57\n      jump\t// in\n    tag_116:\n        /* \"#utility.yul\":1960:1965   */\n      dup2\n        /* \"#utility.yul\":1957:1992   */\n      eq\n        /* \"#utility.yul\":1947:2010   */\n      tag_117\n      jumpi\n        /* \"#utility.yul\":2006:2007   */\n      0x00\n        /* \"#utility.yul\":2003:2004   */\n      dup1\n        /* \"#utility.yul\":1996:2008   */\n      revert\n        /* \"#utility.yul\":1947:2010   */\n    tag_117:\n        /* \"#utility.yul\":1894:2016   */\n      pop\n      jump\t// out\n        /* \"#utility.yul\":2022:2161   */\n    tag_59:\n        /* \"#utility.yul\":2068:2073   */\n      0x00\n        /* \"#utility.yul\":2106:2112   */\n      dup2\n        /* \"#utility.yul\":2093:2113   */\n      calldataload\n        /* \"#utility.yul\":2084:2113   */\n      swap1\n      pop\n        /* \"#utility.yul\":2122:2155   */\n      tag_119\n        /* \"#utility.yul\":2149:2154   */\n      dup2\n        /* \"#utility.yul\":2122:2155   */\n      tag_58\n      jump\t// in\n    tag_119:\n        /* \"#utility.yul\":2022:2161   */\n      swap3\n      swap2\n      pop\n      pop\n      jump\t// out\n        /* \"#utility.yul\":2167:2496   */\n    tag_13:\n        /* \"#utility.yul\":2226:2232   */\n      0x00\n        /* \"#utility.yul\":2275:2277   */\n      0x20\n        /* \"#utility.yul\":2263:2272   */\n      dup3\n        /* \"#utility.yul\":2254:2261   */\n      dup5\n        /* \"#utility.yul\":2250:2273   */\n      sub\n        /* \"#utility.yul\":2246:2278   */\n      slt\n        /* \"#utility.yul\":2243:2362   */\n      iszero\n      tag_121\n      jumpi\n        /* \"#utility.yul\":2281:2360   */\n      tag_122\n      tag_51\n      jump\t// in\n    tag_122:\n        /* \"#utility.yul\":2243:2362   */\n    tag_121:\n        /* \"#utility.yul\":2401:2402   */\n      0x00\n        /* \"#utility.yul\":2426:2479   */\n      tag_123\n        /* \"#utility.yul\":2471:2478   */\n      dup5\n        /* \"#utility.yul\":2462:2468   */\n      dup3\n        /* \"#utility.yul\":2451:2460   */\n      dup6\n        /* \"#utility.yul\":2447:2469   */\n      add\n        /* \"#utility.yul\":2426:2479   */\n      tag_59\n      jump\t// in\n    tag_123:\n        /* \"#utility.yul\":2416:2479   */\n      swap2\n      pop\n        /* \"#utility.yul\":2372:2489   */\n      pop\n        /* \"#utility.yul\":2167:2496   */\n      swap3\n      swap2\n      pop\n      pop\n      jump\t// out\n        /* \"#utility.yul\":2502:2635   */\n    tag_60:\n        /* \"#utility.yul\":2588:2594   */\n      0x00\n        /* \"#utility.yul\":2622:2627   */\n      dup2\n        /* \"#utility.yul\":2616:2628   */\n      mload\n        /* \"#utility.yul\":2606:2628   */\n      swap1\n      pop\n        /* \"#utility.yul\":2502:2635   */\n      swap2\n      swap1\n      pop\n      jump\t// out\n        /* \"#utility.yul\":2641:2844   */\n    tag_61:\n        /* \"#utility.yul\":2759:2770   */\n      0x00\n        /* \"#utility.yul\":2793:2799   */\n      dup3\n        /* \"#utility.yul\":2788:2791   */\n      dup3\n        /* \"#utility.yul\":2781:2800   */\n      mstore\n        /* \"#utility.yul\":2833:2837   */\n      0x20\n        /* \"#utility.yul\":2828:2831   */\n      dup3\n        /* \"#utility.yul\":2824:2838   */\n      add\n        /* \"#utility.yul\":2809:2838   */\n      swap1\n      pop\n        /* \"#utility.yul\":2641:2844   */\n      swap3\n      swap2\n      pop\n      pop\n      jump\t// out\n        /* \"#utility.yul\":2850:3001   */\n    tag_62:\n        /* \"#utility.yul\":2936:2940   */\n      0x00\n        /* \"#utility.yul\":2959:2962   */\n      dup2\n        /* \"#utility.yul\":2951:2962   */\n      swap1\n      pop\n        /* \"#utility.yul\":2989:2993   */\n      0x20\n        /* \"#utility.yul\":2984:2987   */\n      dup3\n        /* \"#utility.yul\":2980:2994   */\n      add\n        /* \"#utility.yul\":2972:2994   */\n      swap1\n      pop\n        /* \"#utility.yul\":2850:3001   */\n      swap2\n      swap1\n      pop\n      jump\t// out\n        /* \"#utility.yul\":3007:3106   */\n    tag_63:\n        /* \"#utility.yul\":3059:3065   */\n      0x00\n        /* \"#utility.yul\":3093:3098   */\n      dup2\n        /* \"#utility.yul\":3087:3099   */\n      mload\n        /* \"#utility.yul\":3077:3099   */\n      swap1\n      pop\n        /* \"#utility.yul\":3007:3106   */\n      swap2\n      swap1\n      pop\n      jump\t// out\n        /* \"#utility.yul\":3112:3271   */\n    tag_64:\n        /* \"#utility.yul\":3186:3197   */\n      0x00\n        /* \"#utility.yul\":3220:3226   */\n      dup3\n        /* \"#utility.yul\":3215:3218   */\n      dup3\n        /* \"#utility.yul\":3208:3227   */\n      mstore\n        /* \"#utility.yul\":3260:3264   */\n      0x20\n        /* \"#utility.yul\":3255:3258   */\n      dup3\n        /* \"#utility.yul\":3251:3265   */\n      add\n        /* \"#utility.yul\":3236:3265   */\n      swap1\n      pop\n        /* \"#utility.yul\":3112:3271   */\n      swap3\n      swap2\n      pop\n      pop\n      jump\t// out\n        /* \"#utility.yul\":3277:3416   */\n    tag_65:\n        /* \"#utility.yul\":3366:3372   */\n      dup3\n        /* \"#utility.yul\":3361:3364   */\n      dup2\n        /* \"#utility.yul\":3356:3359   */\n      dup4\n        /* \"#utility.yul\":3350:3373   */\n      mcopy\n        /* \"#utility.yul\":3407:3408   */\n      0x00\n        /* \"#utility.yul\":3398:3404   */\n      dup4\n        /* \"#utility.yul\":3393:3396   */\n      dup4\n        /* \"#utility.yul\":3389:3405   */\n      add\n        /* \"#utility.yul\":3382:3409   */\n      mstore\n        /* \"#utility.yul\":3277:3416   */\n      pop\n      pop\n      pop\n      jump\t// out\n        /* \"#utility.yul\":3422:3524   */\n    tag_66:\n        /* \"#utility.yul\":3463:3469   */\n      0x00\n        /* \"#utility.yul\":3514:3516   */\n      0x1f\n        /* \"#utility.yul\":3510:3517   */\n      not\n        /* \"#utility.yul\":3505:3507   */\n      0x1f\n        /* \"#utility.yul\":3498:3503   */\n      dup4\n        /* \"#utility.yul\":3494:3508   */\n      add\n        /* \"#utility.yul\":3490:3518   */\n      and\n        /* \"#utility.yul\":3480:3518   */\n      swap1\n      pop\n        /* \"#utility.yul\":3422:3524   */\n      swap2\n      swap1\n      pop\n      jump\t// out\n        /* \"#utility.yul\":3530:3887   */\n    tag_67:\n        /* \"#utility.yul\":3608:3611   */\n      0x00\n        /* \"#utility.yul\":3636:3675   */\n      tag_132\n        /* \"#utility.yul\":3669:3674   */\n      dup3\n        /* \"#utility.yul\":3636:3675   */\n      tag_63\n      jump\t// in\n    tag_132:\n        /* \"#utility.yul\":3691:3752   */\n      tag_133\n        /* \"#utility.yul\":3745:3751   */\n      dup2\n        /* \"#utility.yul\":3740:3743   */\n      dup6\n        /* \"#utility.yul\":3691:3752   */\n      tag_64\n      jump\t// in\n    tag_133:\n        /* \"#utility.yul\":3684:3752   */\n      swap4\n      pop\n        /* \"#utility.yul\":3761:3826   */\n      tag_134\n        /* \"#utility.yul\":3819:3825   */\n      dup2\n        /* \"#utility.yul\":3814:3817   */\n      dup6\n        /* \"#utility.yul\":3807:3811   */\n      0x20\n        /* \"#utility.yul\":3800:3805   */\n      dup7\n        /* \"#utility.yul\":3796:3812   */\n      add\n        /* \"#utility.yul\":3761:3826   */\n      tag_65\n      jump\t// in\n    tag_134:\n        /* \"#utility.yul\":3851:3880   */\n      tag_135\n        /* \"#utility.yul\":3873:3879   */\n      dup2\n        /* \"#utility.yul\":3851:3880   */\n      tag_66\n      jump\t// in\n    tag_135:\n        /* \"#utility.yul\":3846:3849   */\n      dup5\n        /* \"#utility.yul\":3842:3881   */\n      add\n        /* \"#utility.yul\":3835:3881   */\n      swap2\n      pop\n        /* \"#utility.yul\":3612:3887   */\n      pop\n        /* \"#utility.yul\":3530:3887   */\n      swap3\n      swap2\n      pop\n      pop\n      jump\t// out\n        /* \"#utility.yul\":3893:3983   */\n    tag_68:\n        /* \"#utility.yul\":3927:3934   */\n      0x00\n        /* \"#utility.yul\":3970:3975   */\n      dup2\n        /* \"#utility.yul\":3963:3976   */\n      iszero\n        /* \"#utility.yul\":3956:3977   */\n      iszero\n        /* \"#utility.yul\":3945:3977   */\n      swap1\n      pop\n        /* \"#utility.yul\":3893:3983   */\n      swap2\n      swap1\n      pop\n      jump\t// out\n        /* \"#utility.yul\":3989:4088   */\n    tag_69:\n        /* \"#utility.yul\":4060:4081   */\n      tag_138\n        /* \"#utility.yul\":4075:4080   */\n      dup2\n        /* \"#utility.yul\":4060:4081   */\n      tag_68\n      jump\t// in\n    tag_138:\n        /* \"#utility.yul\":4055:4058   */\n      dup3\n        /* \"#utility.yul\":4048:4082   */\n      mstore\n        /* \"#utility.yul\":3989:4088   */\n      pop\n      pop\n      jump\t// out\n        /* \"#utility.yul\":4146:4731   */\n    tag_70:\n        /* \"#utility.yul\":4243:4246   */\n      0x00\n        /* \"#utility.yul\":4279:4283   */\n      0x40\n        /* \"#utility.yul\":4274:4277   */\n      dup4\n        /* \"#utility.yul\":4270:4284   */\n      add\n        /* \"#utility.yul\":4366:4370   */\n      0x00\n        /* \"#utility.yul\":4359:4364   */\n      dup4\n        /* \"#utility.yul\":4355:4371   */\n      add\n        /* \"#utility.yul\":4349:4372   */\n      mload\n        /* \"#utility.yul\":4419:4422   */\n      dup5\n        /* \"#utility.yul\":4413:4417   */\n      dup3\n        /* \"#utility.yul\":4409:4423   */\n      sub\n        /* \"#utility.yul\":4402:4406   */\n      0x00\n        /* \"#utility.yul\":4397:4400   */\n      dup7\n        /* \"#utility.yul\":4393:4407   */\n      add\n        /* \"#utility.yul\":4386:4424   */\n      mstore\n        /* \"#utility.yul\":4445:4518   */\n      tag_140\n        /* \"#utility.yul\":4513:4517   */\n      dup3\n        /* \"#utility.yul\":4499:4511   */\n      dup3\n        /* \"#utility.yul\":4445:4518   */\n      tag_67\n      jump\t// in\n    tag_140:\n        /* \"#utility.yul\":4437:4518   */\n      swap2\n      pop\n        /* \"#utility.yul\":4294:4529   */\n      pop\n        /* \"#utility.yul\":4618:4622   */\n      0x20\n        /* \"#utility.yul\":4611:4616   */\n      dup4\n        /* \"#utility.yul\":4607:4623   */\n      add\n        /* \"#utility.yul\":4601:4624   */\n      mload\n        /* \"#utility.yul\":4637:4694   */\n      tag_141\n        /* \"#utility.yul\":4688:4692   */\n      0x20\n        /* \"#utility.yul\":4683:4686   */\n      dup7\n        /* \"#utility.yul\":4679:4693   */\n      add\n        /* \"#utility.yul\":4665:4677   */\n      dup3\n        /* \"#utility.yul\":4637:4694   */\n      tag_69\n      jump\t// in\n    tag_141:\n        /* \"#utility.yul\":4539:4704   */\n      pop\n        /* \"#utility.yul\":4721:4725   */\n      dup1\n        /* \"#utility.yul\":4714:4725   */\n      swap2\n      pop\n        /* \"#utility.yul\":4248:4731   */\n      pop\n        /* \"#utility.yul\":4146:4731   */\n      swap3\n      swap2\n      pop\n      pop\n      jump\t// out\n        /* \"#utility.yul\":4737:4969   */\n    tag_71:\n        /* \"#utility.yul\":4844:4854   */\n      0x00\n        /* \"#utility.yul\":4879:4963   */\n      tag_143\n        /* \"#utility.yul\":4959:4962   */\n      dup4\n        /* \"#utility.yul\":4951:4957   */\n      dup4\n        /* \"#utility.yul\":4879:4963   */\n      tag_70\n      jump\t// in\n    tag_143:\n        /* \"#utility.yul\":4865:4963   */\n      swap1\n      pop\n        /* \"#utility.yul\":4737:4969   */\n      swap3\n      swap2\n      pop\n      pop\n      jump\t// out\n        /* \"#utility.yul\":4975:5107   */\n    tag_72:\n        /* \"#utility.yul\":5064:5068   */\n      0x00\n        /* \"#utility.yul\":5096:5100   */\n      0x20\n        /* \"#utility.yul\":5091:5094   */\n      dup3\n        /* \"#utility.yul\":5087:5101   */\n      add\n        /* \"#utility.yul\":5079:5101   */\n      swap1\n      pop\n        /* \"#utility.yul\":4975:5107   */\n      swap2\n      swap1\n      pop\n      jump\t// out\n        /* \"#utility.yul\":5169:6232   */\n    tag_73:\n        /* \"#utility.yul\":5326:5329   */\n      0x00\n        /* \"#utility.yul\":5355:5428   */\n      tag_146\n        /* \"#utility.yul\":5422:5427   */\n      dup3\n        /* \"#utility.yul\":5355:5428   */\n      tag_60\n      jump\t// in\n    tag_146:\n        /* \"#utility.yul\":5444:5549   */\n      tag_147\n        /* \"#utility.yul\":5542:5548   */\n      dup2\n        /* \"#utility.yul\":5537:5540   */\n      dup6\n        /* \"#utility.yul\":5444:5549   */\n      tag_61\n      jump\t// in\n    tag_147:\n        /* \"#utility.yul\":5437:5549   */\n      swap4\n      pop\n        /* \"#utility.yul\":5575:5578   */\n      dup4\n        /* \"#utility.yul\":5620:5624   */\n      0x20\n        /* \"#utility.yul\":5612:5618   */\n      dup3\n        /* \"#utility.yul\":5608:5625   */\n      mul\n        /* \"#utility.yul\":5603:5606   */\n      dup6\n        /* \"#utility.yul\":5599:5626   */\n      add\n        /* \"#utility.yul\":5650:5725   */\n      tag_148\n        /* \"#utility.yul\":5719:5724   */\n      dup6\n        /* \"#utility.yul\":5650:5725   */\n      tag_62\n      jump\t// in\n    tag_148:\n        /* \"#utility.yul\":5748:5755   */\n      dup1\n        /* \"#utility.yul\":5779:5780   */\n      0x00\n        /* \"#utility.yul\":5764:6187   */\n    tag_149:\n        /* \"#utility.yul\":5789:5795   */\n      dup6\n        /* \"#utility.yul\":5786:5787   */\n      dup2\n        /* \"#utility.yul\":5783:5796   */\n      lt\n        /* \"#utility.yul\":5764:6187   */\n      iszero\n      tag_151\n      jumpi\n        /* \"#utility.yul\":5860:5869   */\n      dup5\n        /* \"#utility.yul\":5854:5858   */\n      dup5\n        /* \"#utility.yul\":5850:5870   */\n      sub\n        /* \"#utility.yul\":5845:5848   */\n      dup10\n        /* \"#utility.yul\":5838:5871   */\n      mstore\n        /* \"#utility.yul\":5911:5917   */\n      dup2\n        /* \"#utility.yul\":5905:5918   */\n      mload\n        /* \"#utility.yul\":5939:6041   */\n      tag_152\n        /* \"#utility.yul\":6036:6040   */\n      dup6\n        /* \"#utility.yul\":6021:6034   */\n      dup3\n        /* \"#utility.yul\":5939:6041   */\n      tag_71\n      jump\t// in\n    tag_152:\n        /* \"#utility.yul\":5931:6041   */\n      swap5\n      pop\n        /* \"#utility.yul\":6064:6143   */\n      tag_153\n        /* \"#utility.yul\":6136:6142   */\n      dup4\n        /* \"#utility.yul\":6064:6143   */\n      tag_72\n      jump\t// in\n    tag_153:\n        /* \"#utility.yul\":6054:6143   */\n      swap3\n      pop\n        /* \"#utility.yul\":6172:6176   */\n      0x20\n        /* \"#utility.yul\":6167:6170   */\n      dup11\n        /* \"#utility.yul\":6163:6177   */\n      add\n        /* \"#utility.yul\":6156:6177   */\n      swap10\n      pop\n        /* \"#utility.yul\":5824:6187   */\n      pop\n        /* \"#utility.yul\":5811:5812   */\n      0x01\n        /* \"#utility.yul\":5808:5809   */\n      dup2\n        /* \"#utility.yul\":5804:5813   */\n      add\n        /* \"#utility.yul\":5799:5813   */\n      swap1\n      pop\n        /* \"#utility.yul\":5764:6187   */\n      jump(tag_149)\n    tag_151:\n        /* \"#utility.yul\":5768:5782   */\n      pop\n        /* \"#utility.yul\":6203:6207   */\n      dup3\n        /* \"#utility.yul\":6196:6207   */\n      swap8\n      pop\n        /* \"#utility.yul\":6223:6226   */\n      dup8\n        /* \"#utility.yul\":6216:6226   */\n      swap6\n      pop\n        /* \"#utility.yul\":5331:6232   */\n      pop\n      pop\n      pop\n      pop\n      pop\n        /* \"#utility.yul\":5169:6232   */\n      swap3\n      swap2\n      pop\n      pop\n      jump\t// out\n        /* \"#utility.yul\":6238:6687   */\n    tag_18:\n        /* \"#utility.yul\":6419:6423   */\n      0x00\n        /* \"#utility.yul\":6457:6459   */\n      0x20\n        /* \"#utility.yul\":6446:6455   */\n      dup3\n        /* \"#utility.yul\":6442:6460   */\n      add\n        /* \"#utility.yul\":6434:6460   */\n      swap1\n      pop\n        /* \"#utility.yul\":6506:6515   */\n      dup2\n        /* \"#utility.yul\":6500:6504   */\n      dup2\n        /* \"#utility.yul\":6496:6516   */\n      sub\n        /* \"#utility.yul\":6492:6493   */\n      0x00\n        /* \"#utility.yul\":6481:6490   */\n      dup4\n        /* \"#utility.yul\":6477:6494   */\n      add\n        /* \"#utility.yul\":6470:6517   */\n      mstore\n        /* \"#utility.yul\":6534:6680   */\n      tag_155\n        /* \"#utility.yul\":6675:6679   */\n      dup2\n        /* \"#utility.yul\":6666:6672   */\n      dup5\n        /* \"#utility.yul\":6534:6680   */\n      tag_73\n      jump\t// in\n    tag_155:\n        /* \"#utility.yul\":6526:6680   */\n      swap1\n      pop\n        /* \"#utility.yul\":6238:6687   */\n      swap3\n      swap2\n      pop\n      pop\n      jump\t// out\n        /* \"#utility.yul\":6693:6862   */\n    tag_74:\n        /* \"#utility.yul\":6777:6788   */\n      0x00\n        /* \"#utility.yul\":6811:6817   */\n      dup3\n        /* \"#utility.yul\":6806:6809   */\n      dup3\n        /* \"#utility.yul\":6799:6818   */\n      mstore\n        /* \"#utility.yul\":6851:6855   */\n      0x20\n        /* \"#utility.yul\":6846:6849   */\n      dup3\n        /* \"#utility.yul\":6842:6856   */\n      add\n        /* \"#utility.yul\":6827:6856   */\n      swap1\n      pop\n        /* \"#utility.yul\":6693:6862   */\n      swap3\n      swap2\n      pop\n      pop\n      jump\t// out\n        /* \"#utility.yul\":6868:7245   */\n    tag_75:\n        /* \"#utility.yul\":6956:6959   */\n      0x00\n        /* \"#utility.yul\":6984:7023   */\n      tag_158\n        /* \"#utility.yul\":7017:7022   */\n      dup3\n        /* \"#utility.yul\":6984:7023   */\n      tag_63\n      jump\t// in\n    tag_158:\n        /* \"#utility.yul\":7039:7110   */\n      tag_159\n        /* \"#utility.yul\":7103:7109   */\n      dup2\n        /* \"#utility.yul\":7098:7101   */\n      dup6\n        /* \"#utility.yul\":7039:7110   */\n      tag_74\n      jump\t// in\n    tag_159:\n        /* \"#utility.yul\":7032:7110   */\n      swap4\n      pop\n        /* \"#utility.yul\":7119:7184   */\n      tag_160\n        /* \"#utility.yul\":7177:7183   */\n      dup2\n        /* \"#utility.yul\":7172:7175   */\n      dup6\n        /* \"#utility.yul\":7165:7169   */\n      0x20\n        /* \"#utility.yul\":7158:7163   */\n      dup7\n        /* \"#utility.yul\":7154:7170   */\n      add\n        /* \"#utility.yul\":7119:7184   */\n      tag_65\n      jump\t// in\n    tag_160:\n        /* \"#utility.yul\":7209:7238   */\n      tag_161\n        /* \"#utility.yul\":7231:7237   */\n      dup2\n        /* \"#utility.yul\":7209:7238   */\n      tag_66\n      jump\t// in\n    tag_161:\n        /* \"#utility.yul\":7204:7207   */\n      dup5\n        /* \"#utility.yul\":7200:7239   */\n      add\n        /* \"#utility.yul\":7193:7239   */\n      swap2\n      pop\n        /* \"#utility.yul\":6960:7245   */\n      pop\n        /* \"#utility.yul\":6868:7245   */\n      swap3\n      swap2\n      pop\n      pop\n      jump\t// out\n        /* \"#utility.yul\":7251:7360   */\n    tag_76:\n        /* \"#utility.yul\":7332:7353   */\n      tag_163\n        /* \"#utility.yul\":7347:7352   */\n      dup2\n        /* \"#utility.yul\":7332:7353   */\n      tag_68\n      jump\t// in\n    tag_163:\n        /* \"#utility.yul\":7327:7330   */\n      dup3\n        /* \"#utility.yul\":7320:7354   */\n      mstore\n        /* \"#utility.yul\":7251:7360   */\n      pop\n      pop\n      jump\t// out\n        /* \"#utility.yul\":7366:7777   */\n    tag_23:\n        /* \"#utility.yul\":7501:7505   */\n      0x00\n        /* \"#utility.yul\":7539:7541   */\n      0x40\n        /* \"#utility.yul\":7528:7537   */\n      dup3\n        /* \"#utility.yul\":7524:7542   */\n      add\n        /* \"#utility.yul\":7516:7542   */\n      swap1\n      pop\n        /* \"#utility.yul\":7588:7597   */\n      dup2\n        /* \"#utility.yul\":7582:7586   */\n      dup2\n        /* \"#utility.yul\":7578:7598   */\n      sub\n        /* \"#utility.yul\":7574:7575   */\n      0x00\n        /* \"#utility.yul\":7563:7572   */\n      dup4\n        /* \"#utility.yul\":7559:7576   */\n      add\n        /* \"#utility.yul\":7552:7599   */\n      mstore\n        /* \"#utility.yul\":7616:7694   */\n      tag_165\n        /* \"#utility.yul\":7689:7693   */\n      dup2\n        /* \"#utility.yul\":7680:7686   */\n      dup6\n        /* \"#utility.yul\":7616:7694   */\n      tag_75\n      jump\t// in\n    tag_165:\n        /* \"#utility.yul\":7608:7694   */\n      swap1\n      pop\n        /* \"#utility.yul\":7704:7770   */\n      tag_166\n        /* \"#utility.yul\":7766:7768   */\n      0x20\n        /* \"#utility.yul\":7755:7764   */\n      dup4\n        /* \"#utility.yul\":7751:7769   */\n      add\n        /* \"#utility.yul\":7742:7748   */\n      dup5\n        /* \"#utility.yul\":7704:7770   */\n      tag_76\n      jump\t// in\n    tag_166:\n        /* \"#utility.yul\":7366:7777   */\n      swap4\n      swap3\n      pop\n      pop\n      pop\n      jump\t// out\n        /* \"#utility.yul\":7783:7963   */\n    tag_77:\n        /* \"#utility.yul\":7831:7908   */\n      0x4e487b7100000000000000000000000000000000000000000000000000000000\n        /* \"#utility.yul\":7828:7829   */\n      0x00\n        /* \"#utility.yul\":7821:7909   */\n      mstore\n        /* \"#utility.yul\":7928:7932   */\n      0x41\n        /* \"#utility.yul\":7925:7926   */\n      0x04\n        /* \"#utility.yul\":7918:7933   */\n      mstore\n        /* \"#utility.yul\":7952:7956   */\n      0x24\n        /* \"#utility.yul\":7949:7950   */\n      0x00\n        /* \"#utility.yul\":7942:7957   */\n      revert\n        /* \"#utility.yul\":7969:8149   */\n    tag_78:\n        /* \"#utility.yul\":8017:8094   */\n      0x4e487b7100000000000000000000000000000000000000000000000000000000\n        /* \"#utility.yul\":8014:8015   */\n      0x00\n        /* \"#utility.yul\":8007:8095   */\n      mstore\n        /* \"#utility.yul\":8114:8118   */\n      0x22\n        /* \"#utility.yul\":8111:8112   */\n      0x04\n        /* \"#utility.yul\":8104:8119   */\n      mstore\n        /* \"#utility.yul\":8138:8142   */\n      0x24\n        /* \"#utility.yul\":8135:8136   */\n      0x00\n        /* \"#utility.yul\":8128:8143   */\n      revert\n        /* \"#utility.yul\":8155:8475   */\n    tag_38:\n        /* \"#utility.yul\":8199:8205   */\n      0x00\n        /* \"#utility.yul\":8236:8237   */\n      0x02\n        /* \"#utility.yul\":8230:8234   */\n      dup3\n        /* \"#utility.yul\":8226:8238   */\n      div\n        /* \"#utility.yul\":8216:8238   */\n      swap1\n      pop\n        /* \"#utility.yul\":8283:8284   */\n      0x01\n        /* \"#utility.yul\":8277:8281   */\n      dup3\n        /* \"#utility.yul\":8273:8285   */\n      and\n        /* \"#utility.yul\":8304:8322   */\n      dup1\n        /* \"#utility.yul\":8294:8375   */\n      tag_170\n      jumpi\n        /* \"#utility.yul\":8360:8364   */\n      0x7f\n        /* \"#utility.yul\":8352:8358   */\n      dup3\n        /* \"#utility.yul\":8348:8365   */\n      and\n        /* \"#utility.yul\":8338:8365   */\n      swap2\n      pop\n        /* \"#utility.yul\":8294:8375   */\n    tag_170:\n        /* \"#utility.yul\":8422:8424   */\n      0x20\n        /* \"#utility.yul\":8414:8420   */\n      dup3\n        /* \"#utility.yul\":8411:8425   */\n      lt\n        /* \"#utility.yul\":8391:8409   */\n      dup2\n        /* \"#utility.yul\":8388:8426   */\n      sub\n        /* \"#utility.yul\":8385:8469   */\n      tag_171\n      jumpi\n        /* \"#utility.yul\":8441:8459   */\n      tag_172\n      tag_78\n      jump\t// in\n    tag_172:\n        /* \"#utility.yul\":8385:8469   */\n    tag_171:\n        /* \"#utility.yul\":8206:8475   */\n      pop\n        /* \"#utility.yul\":8155:8475   */\n      swap2\n      swap1\n      pop\n      jump\t// out\n        /* \"#utility.yul\":8481:8622   */\n    tag_79:\n        /* \"#utility.yul\":8530:8534   */\n      0x00\n        /* \"#utility.yul\":8553:8556   */\n      dup2\n        /* \"#utility.yul\":8545:8556   */\n      swap1\n      pop\n        /* \"#utility.yul\":8576:8579   */\n      dup2\n        /* \"#utility.yul\":8573:8574   */\n      0x00\n        /* \"#utility.yul\":8566:8580   */\n      mstore\n        /* \"#utility.yul\":8610:8614   */\n      0x20\n        /* \"#utility.yul\":8607:8608   */\n      0x00\n        /* \"#utility.yul\":8597:8615   */\n      keccak256\n        /* \"#utility.yul\":8589:8615   */\n      swap1\n      pop\n        /* \"#utility.yul\":8481:8622   */\n      swap2\n      swap1\n      pop\n      jump\t// out\n        /* \"#utility.yul\":8628:8721   */\n    tag_80:\n        /* \"#utility.yul\":8665:8671   */\n      0x00\n        /* \"#utility.yul\":8712:8714   */\n      0x20\n        /* \"#utility.yul\":8707:8709   */\n      0x1f\n        /* \"#utility.yul\":8700:8705   */\n      dup4\n        /* \"#utility.yul\":8696:8710   */\n      add\n        /* \"#utility.yul\":8692:8715   */\n      div\n        /* \"#utility.yul\":8682:8715   */\n      swap1\n      pop\n        /* \"#utility.yul\":8628:8721   */\n      swap2\n      swap1\n      pop\n      jump\t// out\n        /* \"#utility.yul\":8727:8834   */\n    tag_81:\n        /* \"#utility.yul\":8771:8779   */\n      0x00\n        /* \"#utility.yul\":8821:8826   */\n      dup3\n        /* \"#utility.yul\":8815:8819   */\n      dup3\n        /* \"#utility.yul\":8811:8827   */\n      shl\n        /* \"#utility.yul\":8790:8827   */\n      swap1\n      pop\n        /* \"#utility.yul\":8727:8834   */\n      swap3\n      swap2\n      pop\n      pop\n      jump\t// out\n        /* \"#utility.yul\":8840:9233   */\n    tag_82:\n        /* \"#utility.yul\":8909:8915   */\n      0x00\n        /* \"#utility.yul\":8959:8960   */\n      0x08\n        /* \"#utility.yul\":8947:8957   */\n      dup4\n        /* \"#utility.yul\":8943:8961   */\n      mul\n        /* \"#utility.yul\":8982:9079   */\n      tag_177\n        /* \"#utility.yul\":9012:9078   */\n      0xffffffffffffffffffffffffffffffffffffffffffffffffffffffffffffffff\n        /* \"#utility.yul\":9001:9010   */\n      dup3\n        /* \"#utility.yul\":8982:9079   */\n      tag_81\n      jump\t// in\n    tag_177:\n        /* \"#utility.yul\":9100:9139   */\n      tag_178\n        /* \"#utility.yul\":9130:9138   */\n      dup7\n        /* \"#utility.yul\":9119:9128   */\n      dup4\n        /* \"#utility.yul\":9100:9139   */\n      tag_81\n      jump\t// in\n    tag_178:\n        /* \"#utility.yul\":9088:9139   */\n      swap6\n      pop\n        /* \"#utility.yul\":9172:9176   */\n      dup1\n        /* \"#utility.yul\":9168:9177   */\n      not\n        /* \"#utility.yul\":9161:9166   */\n      dup5\n        /* \"#utility.yul\":9157:9178   */\n      and\n        /* \"#utility.yul\":9148:9178   */\n      swap4\n      pop\n        /* \"#utility.yul\":9221:9225   */\n      dup1\n        /* \"#utility.yul\":9211:9219   */\n      dup7\n        /* \"#utility.yul\":9207:9226   */\n      and\n        /* \"#utility.yul\":9200:9205   */\n      dup5\n        /* \"#utility.yul\":9197:9227   */\n      or\n        /* \"#utility.yul\":9187:9227   */\n      swap3\n      pop\n        /* \"#utility.yul\":8916:9233   */\n      pop\n      pop\n        /* \"#utility.yul\":8840:9233   */\n      swap4\n      swap3\n      pop\n      pop\n      pop\n      jump\t// out\n        /* \"#utility.yul\":9239:9299   */\n    tag_83:\n        /* \"#utility.yul\":9267:9270   */\n      0x00\n        /* \"#utility.yul\":9288:9293   */\n      dup2\n        /* \"#utility.yul\":9281:9293   */\n      swap1\n      pop\n        /* \"#utility.yul\":9239:9299   */\n      swap2\n      swap1\n      pop\n      jump\t// out\n        /* \"#utility.yul\":9305:9447   */\n    tag_84:\n        /* \"#utility.yul\":9355:9364   */\n      0x00\n        /* \"#utility.yul\":9388:9441   */\n      tag_181\n        /* \"#utility.yul\":9406:9440   */\n      tag_182\n        /* \"#utility.yul\":9415:9439   */\n      tag_183\n        /* \"#utility.yul\":9433:9438   */\n      dup5\n        /* \"#utility.yul\":9415:9439   */\n      tag_57\n      jump\t// in\n    tag_183:\n        /* \"#utility.yul\":9406:9440   */\n      tag_83\n      jump\t// in\n    tag_182:\n        /* \"#utility.yul\":9388:9441   */\n      tag_57\n      jump\t// in\n    tag_181:\n        /* \"#utility.yul\":9375:9441   */\n      swap1\n      pop\n        /* \"#utility.yul\":9305:9447   */\n      swap2\n      swap1\n      pop\n      jump\t// out\n        /* \"#utility.yul\":9453:9528   */\n    tag_85:\n        /* \"#utility.yul\":9496:9499   */\n      0x00\n        /* \"#utility.yul\":9517:9522   */\n      dup2\n        /* \"#utility.yul\":9510:9522   */\n      swap1\n      pop\n        /* \"#utility.yul\":9453:9528   */\n      swap2\n      swap1\n      pop\n      jump\t// out\n        /* \"#utility.yul\":9534:9803   */\n    tag_86:\n        /* \"#utility.yul\":9644:9683   */\n      tag_186\n        /* \"#utility.yul\":9675:9682   */\n      dup4\n        /* \"#utility.yul\":9644:9683   */\n      tag_84\n      jump\t// in\n    tag_186:\n        /* \"#utility.yul\":9705:9796   */\n      tag_187\n        /* \"#utility.yul\":9754:9795   */\n      tag_188\n        /* \"#utility.yul\":9778:9794   */\n      dup3\n        /* \"#utility.yul\":9754:9795   */\n      tag_85\n      jump\t// in\n    tag_188:\n        /* \"#utility.yul\":9746:9752   */\n      dup5\n        /* \"#utility.yul\":9739:9743   */\n      dup5\n        /* \"#utility.yul\":9733:9744   */\n      sload\n        /* \"#utility.yul\":9705:9796   */\n      tag_82\n      jump\t// in\n    tag_187:\n        /* \"#utility.yul\":9699:9703   */\n      dup3\n        /* \"#utility.yul\":9692:9797   */\n      sstore\n        /* \"#utility.yul\":9610:9803   */\n      pop\n        /* \"#utility.yul\":9534:9803   */\n      pop\n      pop\n      pop\n      jump\t// out\n        /* \"#utility.yul\":9809:9882   */\n    tag_87:\n        /* \"#utility.yul\":9854:9857   */\n      0x00\n        /* \"#utility.yul\":9809:9882   */\n      swap1\n      jump\t// out\n        /* \"#utility.yul\":9888:10077   */\n    tag_88:\n        /* \"#utility.yul\":9965:9997   */\n      tag_191\n      tag_87\n      jump\t// in\n    tag_191:\n        /* \"#utility.yul\":10006:10071   */\n      tag_192\n        /* \"#utility.yul\":10064:10070   */\n      dup2\n        /* \"#utility.yul\":10056:10062   */\n      dup5\n        /* \"#utility.yul\":10050:10054   */\n      dup5\n        /* \"#utility.yul\":10006:10071   */\n      tag_86\n      jump\t// in\n    tag_192:\n        /* \"#utility.yul\":9941:10077   */\n      pop\n        /* \"#utility.yul\":9888:10077   */\n      pop\n      pop\n      jump\t// out\n        /* \"#utility.yul\":10083:10269   */\n    tag_89:\n        /* \"#utility.yul\":10143:10263   */\n    tag_194:\n        /* \"#utility.yul\":10160:10163   */\n      dup2\n        /* \"#utility.yul\":10153:10158   */\n      dup2\n        /* \"#utility.yul\":10150:10164   */\n      lt\n        /* \"#utility.yul\":10143:10263   */\n      iszero\n      tag_196\n      jumpi\n        /* \"#utility.yul\":10214:10253   */\n      tag_197\n        /* \"#utility.yul\":10251:10252   */\n      0x00\n        /* \"#utility.yul\":10244:10249   */\n      dup3\n        /* \"#utility.yul\":10214:10253   */\n      tag_88\n      jump\t// in\n    tag_197:\n        /* \"#utility.yul\":10187:10188   */\n      0x01\n        /* \"#utility.yul\":10180:10185   */\n      dup2\n        /* \"#utility.yul\":10176:10189   */\n      add\n        /* \"#utility.yul\":10167:10189   */\n      swap1\n      pop\n        /* \"#utility.yul\":10143:10263   */\n      jump(tag_194)\n    tag_196:\n        /* \"#utility.yul\":10083:10269   */\n      pop\n      pop\n      jump\t// out\n        /* \"#utility.yul\":10275:10818   */\n    tag_90:\n        /* \"#utility.yul\":10376:10378   */\n      0x1f\n        /* \"#utility.yul\":10371:10374   */\n      dup3\n        /* \"#utility.yul\":10368:10379   */\n      gt\n        /* \"#utility.yul\":10365:10811   */\n      iszero\n      tag_199\n      jumpi\n        /* \"#utility.yul\":10410:10448   */\n      tag_200\n        /* \"#utility.yul\":10442:10447   */\n      dup2\n        /* \"#utility.yul\":10410:10448   */\n      tag_79\n      jump\t// in\n    tag_200:\n        /* \"#utility.yul\":10494:10523   */\n      tag_201\n        /* \"#utility.yul\":10512:10522   */\n      dup5\n        /* \"#utility.yul\":10494:10523   */\n      tag_80\n      jump\t// in\n    tag_201:\n        /* \"#utility.yul\":10484:10492   */\n      dup2\n        /* \"#utility.yul\":10480:10524   */\n      add\n        /* \"#utility.yul\":10677:10679   */\n      0x20\n        /* \"#utility.yul\":10665:10675   */\n      dup6\n        /* \"#utility.yul\":10662:10680   */\n      lt\n        /* \"#utility.yul\":10659:10708   */\n      iszero\n      tag_202\n      jumpi\n        /* \"#utility.yul\":10698:10706   */\n      dup2\n        /* \"#utility.yul\":10683:10706   */\n      swap1\n      pop\n        /* \"#utility.yul\":10659:10708   */\n    tag_202:\n        /* \"#utility.yul\":10721:10801   */\n      tag_203\n        /* \"#utility.yul\":10777:10799   */\n      tag_204\n        /* \"#utility.yul\":10795:10798   */\n      dup6\n        /* \"#utility.yul\":10777:10799   */\n      tag_80\n      jump\t// in\n    tag_204:\n        /* \"#utility.yul\":10767:10775   */\n      dup4\n        /* \"#utility.yul\":10763:10800   */\n      add\n        /* \"#utility.yul\":10750:10761   */\n      dup3\n        /* \"#utility.yul\":10721:10801   */\n      tag_89\n      jump\t// in\n    tag_203:\n        /* \"#utility.yul\":10380:10811   */\n      pop\n      pop\n        /* \"#utility.yul\":10365:10811   */\n    tag_199:\n        /* \"#utility.yul\":10275:10818   */\n      pop\n      pop\n      pop\n      jump\t// out\n        /* \"#utility.yul\":10824:10941   */\n    tag_91:\n        /* \"#utility.yul\":10878:10886   */\n      0x00\n        /* \"#utility.yul\":10928:10933   */\n      dup3\n        /* \"#utility.yul\":10922:10926   */\n      dup3\n        /* \"#utility.yul\":10918:10934   */\n      shr\n        /* \"#utility.yul\":10897:10934   */\n      swap1\n      pop\n        /* \"#utility.yul\":10824:10941   */\n      swap3\n      swap2\n      pop\n      pop\n      jump\t// out\n        /* \"#utility.yul\":10947:11116   */\n    tag_92:\n        /* \"#utility.yul\":10991:10997   */\n      0x00\n        /* \"#utility.yul\":11024:11075   */\n      tag_207\n        /* \"#utility.yul\":11072:11073   */\n      0x00\n        /* \"#utility.yul\":11068:11074   */\n      not\n        /* \"#utility.yul\":11060:11065   */\n      dup5\n        /* \"#utility.yul\":11057:11058   */\n      0x08\n        /* \"#utility.yul\":11053:11066   */\n      mul\n        /* \"#utility.yul\":11024:11075   */\n      tag_91\n      jump\t// in\n    tag_207:\n        /* \"#utility.yul\":11020:11076   */\n      not\n        /* \"#utility.yul\":11105:11109   */\n      dup1\n        /* \"#utility.yul\":11099:11103   */\n      dup4\n        /* \"#utility.yul\":11095:11110   */\n      and\n        /* \"#utility.yul\":11085:11110   */\n      swap2\n      pop\n        /* \"#utility.yul\":10998:11116   */\n      pop\n        /* \"#utility.yul\":10947:11116   */\n      swap3\n      swap2\n      pop\n      pop\n      jump\t// out\n        /* \"#utility.yul\":11121:11416   */\n    tag_93:\n        /* \"#utility.yul\":11197:11201   */\n      0x00\n        /* \"#utility.yul\":11343:11372   */\n      tag_209\n        /* \"#utility.yul\":11368:11371   */\n      dup4\n        /* \"#utility.yul\":11362:11366   */\n      dup4\n        /* \"#utility.yul\":11343:11372   */\n      tag_92\n      jump\t// in\n    tag_209:\n        /* \"#utility.yul\":11335:11372   */\n      swap2\n      pop\n        /* \"#utility.yul\":11405:11408   */\n      dup3\n        /* \"#utility.yul\":11402:11403   */\n      0x02\n        /* \"#utility.yul\":11398:11409   */\n      mul\n        /* \"#utility.yul\":11392:11396   */\n      dup3\n        /* \"#utility.yul\":11389:11410   */\n      or\n        /* \"#utility.yul\":11381:11410   */\n      swap1\n      pop\n        /* \"#utility.yul\":11121:11416   */\n      swap3\n      swap2\n      pop\n      pop\n      jump\t// out\n        /* \"#utility.yul\":11421:12816   */\n    tag_27:\n        /* \"#utility.yul\":11538:11575   */\n      tag_211\n        /* \"#utility.yul\":11571:11574   */\n      dup3\n        /* \"#utility.yul\":11538:11575   */\n      tag_63\n      jump\t// in\n    tag_211:\n        /* \"#utility.yul\":11640:11658   */\n      0xffffffffffffffff\n        /* \"#utility.yul\":11632:11638   */\n      dup2\n        /* \"#utility.yul\":11629:11659   */\n      gt\n        /* \"#utility.yul\":11626:11682   */\n      iszero\n      tag_212\n      jumpi\n        /* \"#utility.yul\":11662:11680   */\n      tag_213\n      tag_77\n      jump\t// in\n    tag_213:\n        /* \"#utility.yul\":11626:11682   */\n    tag_212:\n        /* \"#utility.yul\":11706:11744   */\n      tag_214\n        /* \"#utility.yul\":11738:11742   */\n      dup3\n        /* \"#utility.yul\":11732:11743   */\n      sload\n        /* \"#utility.yul\":11706:11744   */\n      tag_38\n      jump\t// in\n    tag_214:\n        /* \"#utility.yul\":11791:11858   */\n      tag_215\n        /* \"#utility.yul\":11851:11857   */\n      dup3\n        /* \"#utility.yul\":11843:11849   */\n      dup3\n        /* \"#utility.yul\":11837:11841   */\n      dup6\n        /* \"#utility.yul\":11791:11858   */\n      tag_90\n      jump\t// in\n    tag_215:\n        /* \"#utility.yul\":11885:11886   */\n      0x00\n        /* \"#utility.yul\":11909:11913   */\n      0x20\n        /* \"#utility.yul\":11896:11913   */\n      swap1\n      pop\n        /* \"#utility.yul\":11941:11943   */\n      0x1f\n        /* \"#utility.yul\":11933:11939   */\n      dup4\n        /* \"#utility.yul\":11930:11944   */\n      gt\n        /* \"#utility.yul\":11958:11959   */\n      0x01\n        /* \"#utility.yul\":11953:12571   */\n      dup2\n      eq\n      tag_217\n      jumpi\n        /* \"#utility.yul\":12615:12616   */\n      0x00\n        /* \"#utility.yul\":12632:12638   */\n      dup5\n        /* \"#utility.yul\":12629:12706   */\n      iszero\n      tag_218\n      jumpi\n        /* \"#utility.yul\":12681:12690   */\n      dup3\n        /* \"#utility.yul\":12676:12679   */\n      dup8\n        /* \"#utility.yul\":12672:12691   */\n      add\n        /* \"#utility.yul\":12666:12692   */\n      mload\n        /* \"#utility.yul\":12657:12692   */\n      swap1\n      pop\n        /* \"#utility.yul\":12629:12706   */\n    tag_218:\n        /* \"#utility.yul\":12732:12799   */\n      tag_219\n        /* \"#utility.yul\":12792:12798   */\n      dup6\n        /* \"#utility.yul\":12785:12790   */\n      dup3\n        /* \"#utility.yul\":12732:12799   */\n      tag_93\n      jump\t// in\n    tag_219:\n        /* \"#utility.yul\":12726:12730   */\n      dup7\n        /* \"#utility.yul\":12719:12800   */\n      sstore\n        /* \"#utility.yul\":12588:12810   */\n      pop\n        /* \"#utility.yul\":11923:12810   */\n      jump(tag_216)\n        /* \"#utility.yul\":11953:12571   */\n    tag_217:\n        /* \"#utility.yul\":12005:12009   */\n      0x1f\n        /* \"#utility.yul\":12001:12010   */\n      not\n        /* \"#utility.yul\":11993:11999   */\n      dup5\n        /* \"#utility.yul\":11989:12011   */\n      and\n        /* \"#utility.yul\":12039:12076   */\n      tag_220\n        /* \"#utility.yul\":12071:12075   */\n      dup7\n        /* \"#utility.yul\":12039:12076   */\n      tag_79\n      jump\t// in\n    tag_220:\n        /* \"#utility.yul\":12098:12099   */\n      0x00\n        /* \"#utility.yul\":12112:12320   */\n    tag_221:\n        /* \"#utility.yul\":12126:12133   */\n      dup3\n        /* \"#utility.yul\":12123:12124   */\n      dup2\n        /* \"#utility.yul\":12120:12134   */\n      lt\n        /* \"#utility.yul\":12112:12320   */\n      iszero\n      tag_223\n      jumpi\n        /* \"#utility.yul\":12205:12214   */\n      dup5\n        /* \"#utility.yul\":12200:12203   */\n      dup10\n        /* \"#utility.yul\":12196:12215   */\n      add\n        /* \"#utility.yul\":12190:12216   */\n      mload\n        /* \"#utility.yul\":12182:12188   */\n      dup3\n        /* \"#utility.yul\":12175:12217   */\n      sstore\n        /* \"#utility.yul\":12256:12257   */\n      0x01\n        /* \"#utility.yul\":12248:12254   */\n      dup3\n        /* \"#utility.yul\":12244:12258   */\n      add\n        /* \"#utility.yul\":12234:12258   */\n      swap2\n      pop\n        /* \"#utility.yul\":12303:12305   */\n      0x20\n        /* \"#utility.yul\":12292:12301   */\n      dup6\n        /* \"#utility.yul\":12288:12306   */\n      add\n        /* \"#utility.yul\":12275:12306   */\n      swap5\n      pop\n        /* \"#utility.yul\":12149:12153   */\n      0x20\n        /* \"#utility.yul\":12146:12147   */\n      dup2\n        /* \"#utility.yul\":12142:12154   */\n      add\n        /* \"#utility.yul\":12137:12154   */\n      swap1\n      pop\n        /* \"#utility.yul\":12112:12320   */\n      jump(tag_221)\n    tag_223:\n        /* \"#utility.yul\":12348:12354   */\n      dup7\n        /* \"#utility.yul\":12339:12346   */\n      dup4\n        /* \"#utility.yul\":12336:12355   */\n      lt\n        /* \"#utility.yul\":12333:12512   */\n      iszero\n      tag_224\n      jumpi\n        /* \"#utility.yul\":12406:12415   */\n      dup5\n        /* \"#utility.yul\":12401:12404   */\n      dup10\n        /* \"#utility.yul\":12397:12416   */\n      add\n        /* \"#utility.yul\":12391:12417   */\n      mload\n        /* \"#utility.yul\":12449:12497   */\n      tag_225\n        /* \"#utility.yul\":12491:12495   */\n      0x1f\n        /* \"#utility.yul\":12483:12489   */\n      dup10\n        /* \"#utility.yul\":12479:12496   */\n      and\n        /* \"#utility.yul\":12468:12477   */\n      dup3\n        /* \"#utility.yul\":12449:12497   */\n      tag_92\n      jump\t// in\n    tag_225:\n        /* \"#utility.yul\":12441:12447   */\n      dup4\n        /* \"#utility.yul\":12434:12498   */\n      sstore\n        /* \"#utility.yul\":12356:12512   */\n      pop\n        /* \"#utility.yul\":12333:12512   */\n    tag_224:\n        /* \"#utility.yul\":12558:12559   */\n      0x01\n        /* \"#utility.yul\":12554:12555   */\n      0x02\n        /* \"#utility.yul\":12546:12552   */\n      dup9\n        /* \"#utility.yul\":12542:12556   */\n      mul\n        /* \"#utility.yul\":12538:12560   */\n      add\n        /* \"#utility.yul\":12532:12536   */\n      dup9\n        /* \"#utility.yul\":12525:12561   */\n      sstore\n        /* \"#utility.yul\":11960:12571   */\n      pop\n      pop\n      pop\n        /* \"#utility.yul\":11923:12810   */\n    tag_216:\n      pop\n        /* \"#utility.yul\":11513:12816   */\n      pop\n      pop\n      pop\n        /* \"#utility.yul\":11421:12816   */\n      pop\n      pop\n      jump\t// out\n        /* \"#utility.yul\":12822:13002   */\n    tag_31:\n        /* \"#utility.yul\":12870:12947   */\n      0x4e487b7100000000000000000000000000000000000000000000000000000000\n        /* \"#utility.yul\":12867:12868   */\n      0x00\n        /* \"#utility.yul\":12860:12948   */\n      mstore\n        /* \"#utility.yul\":12967:12971   */\n      0x32\n        /* \"#utility.yul\":12964:12965   */\n      0x04\n        /* \"#utility.yul\":12957:12972   */\n      mstore\n        /* \"#utility.yul\":12991:12995   */\n      0x24\n        /* \"#utility.yul\":12988:12989   */\n      0x00\n        /* \"#utility.yul\":12981:12996   */\n      revert\n\n    auxdata: 0xa26469706673582212204540e3cab96c5fdc00913b5f68f0829aaee465743c9ffe0820106eff24fdfe0764736f6c634300081a0033\n}\n",
				"bytecode": {
					"linkReferences": {},
					"object": "6080604052348015600e575f80fd5b50610a1f8061001c5f395ff3fe608060405234801561000f575f80fd5b506004361061004a575f3560e01c80633c4a57d61461004e578063642a6fbc1461006a578063aede636a14610086578063bc8bc2b4146100a4575b5f80fd5b610068600480360381019061006391906103f9565b6100d5565b005b610084600480360381019061007f9190610477565b61018f565b005b61008e6101cc565b60405161009b9190610621565b60405180910390f35b6100be60048036038101906100b99190610477565b6102d0565b6040516100cc929190610698565b60405180910390f35b5f604051806040016040528084848080601f0160208091040260200160405190810160405280939291908181526020018383808284375f81840152601f19601f8201169050808301925050505050505081526020015f1515815250908060018154018082558091505060019003905f5260205f2090600202015f909190919091505f820151815f01908161016991906108ed565b506020820151816001015f6101000a81548160ff02191690831515021790555050505050565b60015f82815481106101a4576101a36109bc565b5b905f5260205f2090600202016001015f6101000a81548160ff02191690831515021790555050565b60605f805480602002602001604051908101604052809291908181526020015f905b828210156102c7578382905f5260205f2090600202016040518060400160405290815f8201805461021e90610720565b80601f016020809104026020016040519081016040528092919081815260200182805461024a90610720565b80156102955780601f1061026c57610100808354040283529160200191610295565b820191905f5260205f20905b81548152906001019060200180831161027857829003601f168201915b50505050508152602001600182015f9054906101000a900460ff161515151581525050815260200190600101906101ee565b50505050905090565b5f81815481106102de575f80fd5b905f5260205f2090600202015f91509050805f0180546102fd90610720565b80601f016020809104026020016040519081016040528092919081815260200182805461032990610720565b80156103745780601f1061034b57610100808354040283529160200191610374565b820191905f5260205f20905b81548152906001019060200180831161035757829003601f168201915b505050505090806001015f9054906101000a900460ff16905082565b5f80fd5b5f80fd5b5f80fd5b5f80fd5b5f80fd5b5f8083601f8401126103b9576103b8610398565b5b8235905067ffffffffffffffff8111156103d6576103d561039c565b5b6020830191508360018202830111156103f2576103f16103a0565b5b9250929050565b5f806020838503121561040f5761040e610390565b5b5f83013567ffffffffffffffff81111561042c5761042b610394565b5b610438858286016103a4565b92509250509250929050565b5f819050919050565b61045681610444565b8114610460575f80fd5b50565b5f813590506104718161044d565b92915050565b5f6020828403121561048c5761048b610390565b5b5f61049984828501610463565b91505092915050565b5f81519050919050565b5f82825260208201905092915050565b5f819050602082019050919050565b5f81519050919050565b5f82825260208201905092915050565b8281835e5f83830152505050565b5f601f19601f8301169050919050565b5f61050d826104cb565b61051781856104d5565b93506105278185602086016104e5565b610530816104f3565b840191505092915050565b5f8115159050919050565b61054f8161053b565b82525050565b5f604083015f8301518482035f86015261056f8282610503565b91505060208301516105846020860182610546565b508091505092915050565b5f61059a8383610555565b905092915050565b5f602082019050919050565b5f6105b8826104a2565b6105c281856104ac565b9350836020820285016105d4856104bc565b805f5b8581101561060f57848403895281516105f0858261058f565b94506105fb836105a2565b925060208a019950506001810190506105d7565b50829750879550505050505092915050565b5f6020820190508181035f83015261063981846105ae565b905092915050565b5f82825260208201905092915050565b5f61065b826104cb565b6106658185610641565b93506106758185602086016104e5565b61067e816104f3565b840191505092915050565b6106928161053b565b82525050565b5f6040820190508181035f8301526106b08185610651565b90506106bf6020830184610689565b9392505050565b7f4e487b71000000000000000000000000000000000000000000000000000000005f52604160045260245ffd5b7f4e487b71000000000000000000000000000000000000000000000000000000005f52602260045260245ffd5b5f600282049050600182168061073757607f821691505b60208210810361074a576107496106f3565b5b50919050565b5f819050815f5260205f209050919050565b5f6020601f8301049050919050565b5f82821b905092915050565b5f600883026107ac7fffffffffffffffffffffffffffffffffffffffffffffffffffffffffffffffff82610771565b6107b68683610771565b95508019841693508086168417925050509392505050565b5f819050919050565b5f6107f16107ec6107e784610444565b6107ce565b610444565b9050919050565b5f819050919050565b61080a836107d7565b61081e610816826107f8565b84845461077d565b825550505050565b5f90565b610832610826565b61083d818484610801565b505050565b5b81811015610860576108555f8261082a565b600181019050610843565b5050565b601f8211156108a55761087681610750565b61087f84610762565b8101602085101561088e578190505b6108a261089a85610762565b830182610842565b50505b505050565b5f82821c905092915050565b5f6108c55f19846008026108aa565b1980831691505092915050565b5f6108dd83836108b6565b9150826002028217905092915050565b6108f6826104cb565b67ffffffffffffffff81111561090f5761090e6106c6565b5b6109198254610720565b610924828285610864565b5f60209050601f831160018114610955575f8415610943578287015190505b61094d85826108d2565b8655506109b4565b601f19841661096386610750565b5f5b8281101561098a57848901518255600182019150602085019450602081019050610965565b868310156109a757848901516109a3601f8916826108b6565b8355505b6001600288020188555050505b505050505050565b7f4e487b71000000000000000000000000000000000000000000000000000000005f52603260045260245ffdfea26469706673582212204540e3cab96c5fdc00913b5f68f0829aaee465743c9ffe0820106eff24fdfe0764736f6c634300081a0033",
					"opcodes": "PUSH1 0x80 PUSH1 0x40 MSTORE CALLVALUE DUP1 ISZERO PUSH1 0xE JUMPI PUSH0 DUP1 REVERT JUMPDEST POP PUSH2 0xA1F DUP1 PUSH2 0x1C PUSH0 CODECOPY PUSH0 RETURN INVALID PUSH1 0x80 PUSH1 0x40 MSTORE CALLVALUE DUP1 ISZERO PUSH2 0xF JUMPI PUSH0 DUP1 REVERT JUMPDEST POP PUSH1 0x4 CALLDATASIZE LT PUSH2 0x4A JUMPI PUSH0 CALLDATALOAD PUSH1 0xE0 SHR DUP1 PUSH4 0x3C4A57D6 EQ PUSH2 0x4E JUMPI DUP1 PUSH4 0x642A6FBC EQ PUSH2 0x6A JUMPI DUP1 PUSH4 0xAEDE636A EQ PUSH2 0x86 JUMPI DUP1 PUSH4 0xBC8BC2B4 EQ PUSH2 0xA4 JUMPI JUMPDEST PUSH0 DUP1 REVERT JUMPDEST PUSH2 0x68 PUSH1 0x4 DUP1 CALLDATASIZE SUB DUP2 ADD SWAP1 PUSH2 0x63 SWAP2 SWAP1 PUSH2 0x3F9 JUMP JUMPDEST PUSH2 0xD5 JUMP JUMPDEST STOP JUMPDEST PUSH2 0x84 PUSH1 0x4 DUP1 CALLDATASIZE SUB DUP2 ADD SWAP1 PUSH2 0x7F SWAP2 SWAP1 PUSH2 0x477 JUMP JUMPDEST PUSH2 0x18F JUMP JUMPDEST STOP JUMPDEST PUSH2 0x8E PUSH2 0x1CC JUMP JUMPDEST PUSH1 0x40 MLOAD PUSH2 0x9B SWAP2 SWAP1 PUSH2 0x621 JUMP JUMPDEST PUSH1 0x40 MLOAD DUP1 SWAP2 SUB SWAP1 RETURN JUMPDEST PUSH2 0xBE PUSH1 0x4 DUP1 CALLDATASIZE SUB DUP2 ADD SWAP1 PUSH2 0xB9 SWAP2 SWAP1 PUSH2 0x477 JUMP JUMPDEST PUSH2 0x2D0 JUMP JUMPDEST PUSH1 0x40 MLOAD PUSH2 0xCC SWAP3 SWAP2 SWAP1 PUSH2 0x698 JUMP JUMPDEST PUSH1 0x40 MLOAD DUP1 SWAP2 SUB SWAP1 RETURN JUMPDEST PUSH0 PUSH1 0x40 MLOAD DUP1 PUSH1 0x40 ADD PUSH1 0x40 MSTORE DUP1 DUP5 DUP5 DUP1 DUP1 PUSH1 0x1F ADD PUSH1 0x20 DUP1 SWAP2 DIV MUL PUSH1 0x20 ADD PUSH1 0x40 MLOAD SWAP1 DUP2 ADD PUSH1 0x40 MSTORE DUP1 SWAP4 SWAP3 SWAP2 SWAP1 DUP2 DUP2 MSTORE PUSH1 0x20 ADD DUP4 DUP4 DUP1 DUP3 DUP5 CALLDATACOPY PUSH0 DUP2 DUP5 ADD MSTORE PUSH1 0x1F NOT PUSH1 0x1F DUP3 ADD AND SWAP1 POP DUP1 DUP4 ADD SWAP3 POP POP POP POP POP POP POP DUP2 MSTORE PUSH1 0x20 ADD PUSH0 ISZERO ISZERO DUP2 MSTORE POP SWAP1 DUP1 PUSH1 0x1 DUP2 SLOAD ADD DUP1 DUP3 SSTORE DUP1 SWAP2 POP POP PUSH1 0x1 SWAP1 SUB SWAP1 PUSH0 MSTORE PUSH1 0x20 PUSH0 KECCAK256 SWAP1 PUSH1 0x2 MUL ADD PUSH0 SWAP1 SWAP2 SWAP1 SWAP2 SWAP1 SWAP2 POP PUSH0 DUP3 ADD MLOAD DUP2 PUSH0 ADD SWAP1 DUP2 PUSH2 0x169 SWAP2 SWAP1 PUSH2 0x8ED JUMP JUMPDEST POP PUSH1 0x20 DUP3 ADD MLOAD DUP2 PUSH1 0x1 ADD PUSH0 PUSH2 0x100 EXP DUP2 SLOAD DUP2 PUSH1 0xFF MUL NOT AND SWAP1 DUP4 ISZERO ISZERO MUL OR SWAP1 SSTORE POP POP POP POP POP JUMP JUMPDEST PUSH1 0x1 PUSH0 DUP3 DUP2 SLOAD DUP2 LT PUSH2 0x1A4 JUMPI PUSH2 0x1A3 PUSH2 0x9BC JUMP JUMPDEST JUMPDEST SWAP1 PUSH0 MSTORE PUSH1 0x20 PUSH0 KECCAK256 SWAP1 PUSH1 0x2 MUL ADD PUSH1 0x1 ADD PUSH0 PUSH2 0x100 EXP DUP2 SLOAD DUP2 PUSH1 0xFF MUL NOT AND SWAP1 DUP4 ISZERO ISZERO MUL OR SWAP1 SSTORE POP POP JUMP JUMPDEST PUSH1 0x60 PUSH0 DUP1 SLOAD DUP1 PUSH1 0x20 MUL PUSH1 0x20 ADD PUSH1 0x40 MLOAD SWAP1 DUP2 ADD PUSH1 0x40 MSTORE DUP1 SWAP3 SWAP2 SWAP1 DUP2 DUP2 MSTORE PUSH1 0x20 ADD PUSH0 SWAP1 JUMPDEST DUP3 DUP3 LT ISZERO PUSH2 0x2C7 JUMPI DUP4 DUP3 SWAP1 PUSH0 MSTORE PUSH1 0x20 PUSH0 KECCAK256 SWAP1 PUSH1 0x2 MUL ADD PUSH1 0x40 MLOAD DUP1 PUSH1 0x40 ADD PUSH1 0x40 MSTORE SWAP1 DUP2 PUSH0 DUP3 ADD DUP1 SLOAD PUSH2 0x21E SWAP1 PUSH2 0x720 JUMP JUMPDEST DUP1 PUSH1 0x1F ADD PUSH1 0x20 DUP1 SWAP2 DIV MUL PUSH1 0x20 ADD PUSH1 0x40 MLOAD SWAP1 DUP2 ADD PUSH1 0x40 MSTORE DUP1 SWAP3 SWAP2 SWAP1 DUP2 DUP2 MSTORE PUSH1 0x20 ADD DUP3 DUP1 SLOAD PUSH2 0x24A SWAP1 PUSH2 0x720 JUMP JUMPDEST DUP1 ISZERO PUSH2 0x295 JUMPI DUP1 PUSH1 0x1F LT PUSH2 0x26C JUMPI PUSH2 0x100 DUP1 DUP4 SLOAD DIV MUL DUP4 MSTORE SWAP2 PUSH1 0x20 ADD SWAP2 PUSH2 0x295 JUMP JUMPDEST DUP3 ADD SWAP2 SWAP1 PUSH0 MSTORE PUSH1 0x20 PUSH0 KECCAK256 SWAP1 JUMPDEST DUP2 SLOAD DUP2 MSTORE SWAP1 PUSH1 0x1 ADD SWAP1 PUSH1 0x20 ADD DUP1 DUP4 GT PUSH2 0x278 JUMPI DUP3 SWAP1 SUB PUSH1 0x1F AND DUP3 ADD SWAP2 JUMPDEST POP POP POP POP POP DUP2 MSTORE PUSH1 0x20 ADD PUSH1 0x1 DUP3 ADD PUSH0 SWAP1 SLOAD SWAP1 PUSH2 0x100 EXP SWAP1 DIV PUSH1 0xFF AND ISZERO ISZERO ISZERO ISZERO DUP2 MSTORE POP POP DUP2 MSTORE PUSH1 0x20 ADD SWAP1 PUSH1 0x1 ADD SWAP1 PUSH2 0x1EE JUMP JUMPDEST POP POP POP POP SWAP1 POP SWAP1 JUMP JUMPDEST PUSH0 DUP2 DUP2 SLOAD DUP2 LT PUSH2 0x2DE JUMPI PUSH0 DUP1 REVERT JUMPDEST SWAP1 PUSH0 MSTORE PUSH1 0x20 PUSH0 KECCAK256 SWAP1 PUSH1 0x2 MUL ADD PUSH0 SWAP2 POP SWAP1 POP DUP1 PUSH0 ADD DUP1 SLOAD PUSH2 0x2FD SWAP1 PUSH2 0x720 JUMP JUMPDEST DUP1 PUSH1 0x1F ADD PUSH1 0x20 DUP1 SWAP2 DIV MUL PUSH1 0x20 ADD PUSH1 0x40 MLOAD SWAP1 DUP2 ADD PUSH1 0x40 MSTORE DUP1 SWAP3 SWAP2 SWAP1 DUP2 DUP2 MSTORE PUSH1 0x20 ADD DUP3 DUP1 SLOAD PUSH2 0x329 SWAP1 PUSH2 0x720 JUMP JUMPDEST DUP1 ISZERO PUSH2 0x374 JUMPI DUP1 PUSH1 0x1F LT PUSH2 0x34B JUMPI PUSH2 0x100 DUP1 DUP4 SLOAD DIV MUL DUP4 MSTORE SWAP2 PUSH1 0x20 ADD SWAP2 PUSH2 0x374 JUMP JUMPDEST DUP3 ADD SWAP2 SWAP1 PUSH0 MSTORE PUSH1 0x20 PUSH0 KECCAK256 SWAP1 JUMPDEST DUP2 SLOAD DUP2 MSTORE SWAP1 PUSH1 0x1 ADD SWAP1 PUSH1 0x20 ADD DUP1 DUP4 GT PUSH2 0x357 JUMPI DUP3 SWAP1 SUB PUSH1 0x1F AND DUP3 ADD SWAP2 JUMPDEST POP POP POP POP POP SWAP1 DUP1 PUSH1 0x1 ADD PUSH0 SWAP1 SLOAD SWAP1 PUSH2 0x100 EXP SWAP1 DIV PUSH1 0xFF AND SWAP1 POP DUP3 JUMP JUMPDEST PUSH0 DUP1 REVERT JUMPDEST PUSH0 DUP1 REVERT JUMPDEST PUSH0 DUP1 REVERT JUMPDEST PUSH0 DUP1 REVERT JUMPDEST PUSH0 DUP1 REVERT JUMPDEST PUSH0 DUP1 DUP4 PUSH1 0x1F DUP5 ADD SLT PUSH2 0x3B9 JUMPI PUSH2 0x3B8 PUSH2 0x398 JUMP JUMPDEST JUMPDEST DUP3 CALLDATALOAD SWAP1 POP PUSH8 0xFFFFFFFFFFFFFFFF DUP2 GT ISZERO PUSH2 0x3D6 JUMPI PUSH2 0x3D5 PUSH2 0x39C JUMP JUMPDEST JUMPDEST PUSH1 0x20 DUP4 ADD SWAP2 POP DUP4 PUSH1 0x1 DUP3 MUL DUP4 ADD GT ISZERO PUSH2 0x3F2 JUMPI PUSH2 0x3F1 PUSH2 0x3A0 JUMP JUMPDEST JUMPDEST SWAP3 POP SWAP3 SWAP1 POP JUMP JUMPDEST PUSH0 DUP1 PUSH1 0x20 DUP4 DUP6 SUB SLT ISZERO PUSH2 0x40F JUMPI PUSH2 0x40E PUSH2 0x390 JUMP JUMPDEST JUMPDEST PUSH0 DUP4 ADD CALLDATALOAD PUSH8 0xFFFFFFFFFFFFFFFF DUP2 GT ISZERO PUSH2 0x42C JUMPI PUSH2 0x42B PUSH2 0x394 JUMP JUMPDEST JUMPDEST PUSH2 0x438 DUP6 DUP3 DUP7 ADD PUSH2 0x3A4 JUMP JUMPDEST SWAP3 POP SWAP3 POP POP SWAP3 POP SWAP3 SWAP1 POP JUMP JUMPDEST PUSH0 DUP2 SWAP1 POP SWAP2 SWAP1 POP JUMP JUMPDEST PUSH2 0x456 DUP2 PUSH2 0x444 JUMP JUMPDEST DUP2 EQ PUSH2 0x460 JUMPI PUSH0 DUP1 REVERT JUMPDEST POP JUMP JUMPDEST PUSH0 DUP2 CALLDATALOAD SWAP1 POP PUSH2 0x471 DUP2 PUSH2 0x44D JUMP JUMPDEST SWAP3 SWAP2 POP POP JUMP JUMPDEST PUSH0 PUSH1 0x20 DUP3 DUP5 SUB SLT ISZERO PUSH2 0x48C JUMPI PUSH2 0x48B PUSH2 0x390 JUMP JUMPDEST JUMPDEST PUSH0 PUSH2 0x499 DUP5 DUP3 DUP6 ADD PUSH2 0x463 JUMP JUMPDEST SWAP2 POP POP SWAP3 SWAP2 POP POP JUMP JUMPDEST PUSH0 DUP2 MLOAD SWAP1 POP SWAP2 SWAP1 POP JUMP JUMPDEST PUSH0 DUP3 DUP3 MSTORE PUSH1 0x20 DUP3 ADD SWAP1 POP SWAP3 SWAP2 POP POP JUMP JUMPDEST PUSH0 DUP2 SWAP1 POP PUSH1 0x20 DUP3 ADD SWAP1 POP SWAP2 SWAP1 POP JUMP JUMPDEST PUSH0 DUP2 MLOAD SWAP1 POP SWAP2 SWAP1 POP JUMP JUMPDEST PUSH0 DUP3 DUP3 MSTORE PUSH1 0x20 DUP3 ADD SWAP1 POP SWAP3 SWAP2 POP POP JUMP JUMPDEST DUP3 DUP2 DUP4 MCOPY PUSH0 DUP4 DUP4 ADD MSTORE POP POP POP JUMP JUMPDEST PUSH0 PUSH1 0x1F NOT PUSH1 0x1F DUP4 ADD AND SWAP1 POP SWAP2 SWAP1 POP JUMP JUMPDEST PUSH0 PUSH2 0x50D DUP3 PUSH2 0x4CB JUMP JUMPDEST PUSH2 0x517 DUP2 DUP6 PUSH2 0x4D5 JUMP JUMPDEST SWAP4 POP PUSH2 0x527 DUP2 DUP6 PUSH1 0x20 DUP7 ADD PUSH2 0x4E5 JUMP JUMPDEST PUSH2 0x530 DUP2 PUSH2 0x4F3 JUMP JUMPDEST DUP5 ADD SWAP2 POP POP SWAP3 SWAP2 POP POP JUMP JUMPDEST PUSH0 DUP2 ISZERO ISZERO SWAP1 POP SWAP2 SWAP1 POP JUMP JUMPDEST PUSH2 0x54F DUP2 PUSH2 0x53B JUMP JUMPDEST DUP3 MSTORE POP POP JUMP JUMPDEST PUSH0 PUSH1 0x40 DUP4 ADD PUSH0 DUP4 ADD MLOAD DUP5 DUP3 SUB PUSH0 DUP7 ADD MSTORE PUSH2 0x56F DUP3 DUP3 PUSH2 0x503 JUMP JUMPDEST SWAP2 POP POP PUSH1 0x20 DUP4 ADD MLOAD PUSH2 0x584 PUSH1 0x20 DUP7 ADD DUP3 PUSH2 0x546 JUMP JUMPDEST POP DUP1 SWAP2 POP POP SWAP3 SWAP2 POP POP JUMP JUMPDEST PUSH0 PUSH2 0x59A DUP4 DUP4 PUSH2 0x555 JUMP JUMPDEST SWAP1 POP SWAP3 SWAP2 POP POP JUMP JUMPDEST PUSH0 PUSH1 0x20 DUP3 ADD SWAP1 POP SWAP2 SWAP1 POP JUMP JUMPDEST PUSH0 PUSH2 0x5B8 DUP3 PUSH2 0x4A2 JUMP JUMPDEST PUSH2 0x5C2 DUP2 DUP6 PUSH2 0x4AC JUMP JUMPDEST SWAP4 POP DUP4 PUSH1 0x20 DUP3 MUL DUP6 ADD PUSH2 0x5D4 DUP6 PUSH2 0x4BC JUMP JUMPDEST DUP1 PUSH0 JUMPDEST DUP6 DUP2 LT ISZERO PUSH2 0x60F JUMPI DUP5 DUP5 SUB DUP10 MSTORE DUP2 MLOAD PUSH2 0x5F0 DUP6 DUP3 PUSH2 0x58F JUMP JUMPDEST SWAP5 POP PUSH2 0x5FB DUP4 PUSH2 0x5A2 JUMP JUMPDEST SWAP3 POP PUSH1 0x20 DUP11 ADD SWAP10 POP POP PUSH1 0x1 DUP2 ADD SWAP1 POP PUSH2 0x5D7 JUMP JUMPDEST POP DUP3 SWAP8 POP DUP8 SWAP6 POP POP POP POP POP POP SWAP3 SWAP2 POP POP JUMP JUMPDEST PUSH0 PUSH1 0x20 DUP3 ADD SWAP1 POP DUP2 DUP2 SUB PUSH0 DUP4 ADD MSTORE PUSH2 0x639 DUP2 DUP5 PUSH2 0x5AE JUMP JUMPDEST SWAP1 POP SWAP3 SWAP2 POP POP JUMP JUMPDEST PUSH0 DUP3 DUP3 MSTORE PUSH1 0x20 DUP3 ADD SWAP1 POP SWAP3 SWAP2 POP POP JUMP JUMPDEST PUSH0 PUSH2 0x65B DUP3 PUSH2 0x4CB JUMP JUMPDEST PUSH2 0x665 DUP2 DUP6 PUSH2 0x641 JUMP JUMPDEST SWAP4 POP PUSH2 0x675 DUP2 DUP6 PUSH1 0x20 DUP7 ADD PUSH2 0x4E5 JUMP JUMPDEST PUSH2 0x67E DUP2 PUSH2 0x4F3 JUMP JUMPDEST DUP5 ADD SWAP2 POP POP SWAP3 SWAP2 POP POP JUMP JUMPDEST PUSH2 0x692 DUP2 PUSH2 0x53B JUMP JUMPDEST DUP3 MSTORE POP POP JUMP JUMPDEST PUSH0 PUSH1 0x40 DUP3 ADD SWAP1 POP DUP2 DUP2 SUB PUSH0 DUP4 ADD MSTORE PUSH2 0x6B0 DUP2 DUP6 PUSH2 0x651 JUMP JUMPDEST SWAP1 POP PUSH2 0x6BF PUSH1 0x20 DUP4 ADD DUP5 PUSH2 0x689 JUMP JUMPDEST SWAP4 SWAP3 POP POP POP JUMP JUMPDEST PUSH32 0x4E487B7100000000000000000000000000000000000000000000000000000000 PUSH0 MSTORE PUSH1 0x41 PUSH1 0x4 MSTORE PUSH1 0x24 PUSH0 REVERT JUMPDEST PUSH32 0x4E487B7100000000000000000000000000000000000000000000000000000000 PUSH0 MSTORE PUSH1 0x22 PUSH1 0x4 MSTORE PUSH1 0x24 PUSH0 REVERT JUMPDEST PUSH0 PUSH1 0x2 DUP3 DIV SWAP1 POP PUSH1 0x1 DUP3 AND DUP1 PUSH2 0x737 JUMPI PUSH1 0x7F DUP3 AND SWAP2 POP JUMPDEST PUSH1 0x20 DUP3 LT DUP2 SUB PUSH2 0x74A JUMPI PUSH2 0x749 PUSH2 0x6F3 JUMP JUMPDEST JUMPDEST POP SWAP2 SWAP1 POP JUMP JUMPDEST PUSH0 DUP2 SWAP1 POP DUP2 PUSH0 MSTORE PUSH1 0x20 PUSH0 KECCAK256 SWAP1 POP SWAP2 SWAP1 POP JUMP JUMPDEST PUSH0 PUSH1 0x20 PUSH1 0x1F DUP4 ADD DIV SWAP1 POP SWAP2 SWAP1 POP JUMP JUMPDEST PUSH0 DUP3 DUP3 SHL SWAP1 POP SWAP3 SWAP2 POP POP JUMP JUMPDEST PUSH0 PUSH1 0x8 DUP4 MUL PUSH2 0x7AC PUSH32 0xFFFFFFFFFFFFFFFFFFFFFFFFFFFFFFFFFFFFFFFFFFFFFFFFFFFFFFFFFFFFFFFF DUP3 PUSH2 0x771 JUMP JUMPDEST PUSH2 0x7B6 DUP7 DUP4 PUSH2 0x771 JUMP JUMPDEST SWAP6 POP DUP1 NOT DUP5 AND SWAP4 POP DUP1 DUP7 AND DUP5 OR SWAP3 POP POP POP SWAP4 SWAP3 POP POP POP JUMP JUMPDEST PUSH0 DUP2 SWAP1 POP SWAP2 SWAP1 POP JUMP JUMPDEST PUSH0 PUSH2 0x7F1 PUSH2 0x7EC PUSH2 0x7E7 DUP5 PUSH2 0x444 JUMP JUMPDEST PUSH2 0x7CE JUMP JUMPDEST PUSH2 0x444 JUMP JUMPDEST SWAP1 POP SWAP2 SWAP1 POP JUMP JUMPDEST PUSH0 DUP2 SWAP1 POP SWAP2 SWAP1 POP JUMP JUMPDEST PUSH2 0x80A DUP4 PUSH2 0x7D7 JUMP JUMPDEST PUSH2 0x81E PUSH2 0x816 DUP3 PUSH2 0x7F8 JUMP JUMPDEST DUP5 DUP5 SLOAD PUSH2 0x77D JUMP JUMPDEST DUP3 SSTORE POP POP POP POP JUMP JUMPDEST PUSH0 SWAP1 JUMP JUMPDEST PUSH2 0x832 PUSH2 0x826 JUMP JUMPDEST PUSH2 0x83D DUP2 DUP5 DUP5 PUSH2 0x801 JUMP JUMPDEST POP POP POP JUMP JUMPDEST JUMPDEST DUP2 DUP2 LT ISZERO PUSH2 0x860 JUMPI PUSH2 0x855 PUSH0 DUP3 PUSH2 0x82A JUMP JUMPDEST PUSH1 0x1 DUP2 ADD SWAP1 POP PUSH2 0x843 JUMP JUMPDEST POP POP JUMP JUMPDEST PUSH1 0x1F DUP3 GT ISZERO PUSH2 0x8A5 JUMPI PUSH2 0x876 DUP2 PUSH2 0x750 JUMP JUMPDEST PUSH2 0x87F DUP5 PUSH2 0x762 JUMP JUMPDEST DUP2 ADD PUSH1 0x20 DUP6 LT ISZERO PUSH2 0x88E JUMPI DUP2 SWAP1 POP JUMPDEST PUSH2 0x8A2 PUSH2 0x89A DUP6 PUSH2 0x762 JUMP JUMPDEST DUP4 ADD DUP3 PUSH2 0x842 JUMP JUMPDEST POP POP JUMPDEST POP POP POP JUMP JUMPDEST PUSH0 DUP3 DUP3 SHR SWAP1 POP SWAP3 SWAP2 POP POP JUMP JUMPDEST PUSH0 PUSH2 0x8C5 PUSH0 NOT DUP5 PUSH1 0x8 MUL PUSH2 0x8AA JUMP JUMPDEST NOT DUP1 DUP4 AND SWAP2 POP POP SWAP3 SWAP2 POP POP JUMP JUMPDEST PUSH0 PUSH2 0x8DD DUP4 DUP4 PUSH2 0x8B6 JUMP JUMPDEST SWAP2 POP DUP3 PUSH1 0x2 MUL DUP3 OR SWAP1 POP SWAP3 SWAP2 POP POP JUMP JUMPDEST PUSH2 0x8F6 DUP3 PUSH2 0x4CB JUMP JUMPDEST PUSH8 0xFFFFFFFFFFFFFFFF DUP2 GT ISZERO PUSH2 0x90F JUMPI PUSH2 0x90E PUSH2 0x6C6 JUMP JUMPDEST JUMPDEST PUSH2 0x919 DUP3 SLOAD PUSH2 0x720 JUMP JUMPDEST PUSH2 0x924 DUP3 DUP3 DUP6 PUSH2 0x864 JUMP JUMPDEST PUSH0 PUSH1 0x20 SWAP1 POP PUSH1 0x1F DUP4 GT PUSH1 0x1 DUP2 EQ PUSH2 0x955 JUMPI PUSH0 DUP5 ISZERO PUSH2 0x943 JUMPI DUP3 DUP8 ADD MLOAD SWAP1 POP JUMPDEST PUSH2 0x94D DUP6 DUP3 PUSH2 0x8D2 JUMP JUMPDEST DUP7 SSTORE POP PUSH2 0x9B4 JUMP JUMPDEST PUSH1 0x1F NOT DUP5 AND PUSH2 0x963 DUP7 PUSH2 0x750 JUMP JUMPDEST PUSH0 JUMPDEST DUP3 DUP2 LT ISZERO PUSH2 0x98A JUMPI DUP5 DUP10 ADD MLOAD DUP3 SSTORE PUSH1 0x1 DUP3 ADD SWAP2 POP PUSH1 0x20 DUP6 ADD SWAP5 POP PUSH1 0x20 DUP2 ADD SWAP1 POP PUSH2 0x965 JUMP JUMPDEST DUP7 DUP4 LT ISZERO PUSH2 0x9A7 JUMPI DUP5 DUP10 ADD MLOAD PUSH2 0x9A3 PUSH1 0x1F DUP10 AND DUP3 PUSH2 0x8B6 JUMP JUMPDEST DUP4 SSTORE POP JUMPDEST PUSH1 0x1 PUSH1 0x2 DUP9 MUL ADD DUP9 SSTORE POP POP POP JUMPDEST POP POP POP POP POP POP JUMP JUMPDEST PUSH32 0x4E487B7100000000000000000000000000000000000000000000000000000000 PUSH0 MSTORE PUSH1 0x32 PUSH1 0x4 MSTORE PUSH1 0x24 PUSH0 REVERT INVALID LOG2 PUSH5 0x6970667358 0x22 SLT KECCAK256 GASLIMIT BLOCKHASH 0xE3 0xCA 0xB9 PUSH13 0x5FDC00913B5F68F0829AAEE465 PUSH21 0x3C9FFE0820106EFF24FDFE0764736F6C634300081A STOP CALLER "
				},
				"gasEstimates": {
					"creation": {
						"codeDepositCost": "518200",
						"executionCost": "547",
						"totalCost": "518747"
					},
					"external": {
						"addToDo(string)": "infinite",
						"completeToDo(uint256)": "26861",
						"getToDo()": "infinite",
						"todos(uint256)": "infinite"
					}
				},
				"methodIdentifiers": {
					"addToDo(string)": "3c4a57d6",
					"completeToDo(uint256)": "642a6fbc",
					"getToDo()": "aede636a",
					"todos(uint256)": "bc8bc2b4"
				}
			},
			"storageLayout": {
				"storage": [
					{
						"astId": 10,
						"contract": "small-projects/todolist.sol:TodoList",
						"label": "todos",
						"offset": 0,
						"slot": "0",
						"type": "t_array(t_struct(ToDo)6_storage)dyn_storage"
					}
				],
				"types": {
					"t_array(t_struct(ToDo)6_storage)dyn_storage": {
						"base": "t_struct(ToDo)6_storage",
						"encoding": "dynamic_array",
						"label": "struct TodoList.ToDo[]",
						"numberOfBytes": "32"
					},
					"t_bool": {
						"encoding": "inplace",
						"label": "bool",
						"numberOfBytes": "1"
					},
					"t_string_storage": {
						"encoding": "bytes",
						"label": "string",
						"numberOfBytes": "32"
					},
					"t_struct(ToDo)6_storage": {
						"encoding": "inplace",
						"label": "struct TodoList.ToDo",
						"members": [
							{
								"astId": 3,
								"contract": "small-projects/todolist.sol:TodoList",
								"label": "todo",
								"offset": 0,
								"slot": "0",
								"type": "t_string_storage"
							},
							{
								"astId": 5,
								"contract": "small-projects/todolist.sol:TodoList",
								"label": "isCompleted",
								"offset": 0,
								"slot": "1",
								"type": "t_bool"
							}
						],
						"numberOfBytes": "64"
					}
				}
			},
			"userdoc": {
				"kind": "user",
				"methods": {},
				"version": 1
			}
		}
	}
}