{
	"data": {
		"bytecode": {
			"linkReferences": {},
			"object": "6080604052348015600e575f80fd5b506101bc8061001c5f395ff3fe608060405234801561000f575f80fd5b5060043610610034575f3560e01c80635bbfc2a414610038578063950b995414610068575b5f80fd5b610052600480360381019061004d9190610133565b610098565b60405161005f919061016d565b60405180910390f35b610082600480360381019061007d9190610133565b6100b5565b60405161008f919061016d565b60405180910390f35b5f600a82106100a85760026100ab565b60015b60ff169050919050565b5f600a821180156100c65750601482105b156100d457600190506100f7565b6014821180156100e45750601e82105b156100f257600290506100f7565b600390505b919050565b5f80fd5b5f819050919050565b61011281610100565b811461011c575f80fd5b50565b5f8135905061012d81610109565b92915050565b5f60208284031215610148576101476100fc565b5b5f6101558482850161011f565b91505092915050565b61016781610100565b82525050565b5f6020820190506101805f83018461015e565b9291505056fea264697066735822122058e34aa2f09f87545cba18d91dbba1e0ffcd46b5cae44ec384fa2e76b01c02a464736f6c634300081a0033",
			"opcodes": "PUSH1 0x80 PUSH1 0x40 MSTORE CALLVALUE DUP1 ISZERO PUSH1 0xE JUMPI PUSH0 DUP1 REVERT JUMPDEST POP PUSH2 0x1BC DUP1 PUSH2 0x1C PUSH0 CODECOPY PUSH0 RETURN INVALID PUSH1 0x80 PUSH1 0x40 MSTORE CALLVALUE DUP1 ISZERO PUSH2 0xF JUMPI PUSH0 DUP1 REVERT JUMPDEST POP PUSH1 0x4 CALLDATASIZE LT PUSH2 0x34 JUMPI PUSH0 CALLDATALOAD PUSH1 0xE0 SHR DUP1 PUSH4 0x5BBFC2A4 EQ PUSH2 0x38 JUMPI DUP1 PUSH4 0x950B9954 EQ PUSH2 0x68 JUMPI JUMPDEST PUSH0 DUP1 REVERT JUMPDEST PUSH2 0x52 PUSH1 0x4 DUP1 CALLDATASIZE SUB DUP2 ADD SWAP1 PUSH2 0x4D SWAP2 SWAP1 PUSH2 0x133 JUMP JUMPDEST PUSH2 0x98 JUMP JUMPDEST PUSH1 0x40 MLOAD PUSH2 0x5F SWAP2 SWAP1 PUSH2 0x16D JUMP JUMPDEST PUSH1 0x40 MLOAD DUP1 SWAP2 SUB SWAP1 RETURN JUMPDEST PUSH2 0x82 PUSH1 0x4 DUP1 CALLDATASIZE SUB DUP2 ADD SWAP1 PUSH2 0x7D SWAP2 SWAP1 PUSH2 0x133 JUMP JUMPDEST PUSH2 0xB5 JUMP JUMPDEST PUSH1 0x40 MLOAD PUSH2 0x8F SWAP2 SWAP1 PUSH2 0x16D JUMP JUMPDEST PUSH1 0x40 MLOAD DUP1 SWAP2 SUB SWAP1 RETURN JUMPDEST PUSH0 PUSH1 0xA DUP3 LT PUSH2 0xA8 JUMPI PUSH1 0x2 PUSH2 0xAB JUMP JUMPDEST PUSH1 0x1 JUMPDEST PUSH1 0xFF AND SWAP1 POP SWAP2 SWAP1 POP JUMP JUMPDEST PUSH0 PUSH1 0xA DUP3 GT DUP1 ISZERO PUSH2 0xC6 JUMPI POP PUSH1 0x14 DUP3 LT JUMPDEST ISZERO PUSH2 0xD4 JUMPI PUSH1 0x1 SWAP1 POP PUSH2 0xF7 JUMP JUMPDEST PUSH1 0x14 DUP3 GT DUP1 ISZERO PUSH2 0xE4 JUMPI POP PUSH1 0x1E DUP3 LT JUMPDEST ISZERO PUSH2 0xF2 JUMPI PUSH1 0x2 SWAP1 POP PUSH2 0xF7 JUMP JUMPDEST PUSH1 0x3 SWAP1 POP JUMPDEST SWAP2 SWAP1 POP JUMP JUMPDEST PUSH0 DUP1 REVERT JUMPDEST PUSH0 DUP2 SWAP1 POP SWAP2 SWAP1 POP JUMP JUMPDEST PUSH2 0x112 DUP2 PUSH2 0x100 JUMP JUMPDEST DUP2 EQ PUSH2 0x11C JUMPI PUSH0 DUP1 REVERT JUMPDEST POP JUMP JUMPDEST PUSH0 DUP2 CALLDATALOAD SWAP1 POP PUSH2 0x12D DUP2 PUSH2 0x109 JUMP JUMPDEST SWAP3 SWAP2 POP POP JUMP JUMPDEST PUSH0 PUSH1 0x20 DUP3 DUP5 SUB SLT ISZERO PUSH2 0x148 JUMPI PUSH2 0x147 PUSH2 0xFC JUMP JUMPDEST JUMPDEST PUSH0 PUSH2 0x155 DUP5 DUP3 DUP6 ADD PUSH2 0x11F JUMP JUMPDEST SWAP2 POP POP SWAP3 SWAP2 POP POP JUMP JUMPDEST PUSH2 0x167 DUP2 PUSH2 0x100 JUMP JUMPDEST DUP3 MSTORE POP POP JUMP JUMPDEST PUSH0 PUSH1 0x20 DUP3 ADD SWAP1 POP PUSH2 0x180 PUSH0 DUP4 ADD DUP5 PUSH2 0x15E JUMP JUMPDEST SWAP3 SWAP2 POP POP JUMP INVALID LOG2 PUSH5 0x6970667358 0x22 SLT KECCAK256 PC 0xE3 BLOBBASEFEE LOG2 CREATE SWAP16 DUP8 SLOAD TLOAD 0xBA XOR 0xD9 SAR 0xBB LOG1 0xE0 SELFDESTRUCT 0xCD CHAINID 0xB5 0xCA 0xE4 0x4E 0xC3 DUP5 STATICCALL 0x2E PUSH23 0xB01C02A464736F6C634300081A00330000000000000000 "
		},
		"gasEstimates": {
			"creation": {
				"codeDepositCost": "88800",
				"executionCost": "133",
				"totalCost": "88933"
			},
			"external": {
				"ifElse(uint256)": "infinite",
				"ternaryOperator(uint256)": "infinite"
			}
		},
		"methodIdentifiers": {
			"ifElse(uint256)": "950b9954",
			"ternaryOperator(uint256)": "5bbfc2a4"
		}
	},
	"abi": [
		{
			"inputs": [
				{
					"internalType": "uint256",
					"name": "num",
					"type": "uint256"
				}
			],
			"name": "ifElse",
			"outputs": [
				{
					"internalType": "uint256",
					"name": "",
					"type": "uint256"
				}
			],
			"stateMutability": "pure",
			"type": "function"
		},
		{
			"inputs": [
				{
					"internalType": "uint256",
					"name": "x",
					"type": "uint256"
				}
			],
			"name": "ternaryOperator",
			"outputs": [
				{
					"internalType": "uint256",
					"name": "",
					"type": "uint256"
				}
			],
			"stateMutability": "pure",
			"type": "function"
		}
	]
}